:100000000C949F060C94E3060C94E3060C94E30610
:100010000C94E3060C94E3060C94E3060C94E306BC
:100020000C94E3060C94E3060C94A3110C94751243
:100030000C94651F0C94E3060C94E3060C94E30601
:100040000C94E3060C94E3060C94E3060C94E3068C
:100050000C94E3060C9405200C94E3060C94E30640
:100060000C94E3060C94E3060C94E3060C94E3066C
:100070000C94E3060C94E3060C94E3060C94E3065C
:100080000C94E3060C94E3060C94E3060C94E3064C
:100090000C94E3060C94E3060C94E3060C94E3063C
:1000A0000C94E3060C94E3060C94E306E2120413AA
:1000B000F2130413F21349136C13F213C113D41384
:1000C000AE16AE16DD16DD161C173C176C186C1834
:1000D00047176C18F717F7175D186C186C18661827
:1000E0000418041804180418041804180418041830
:1000F0000418041804180418041804180418041820
:1001000014182218291830183A18253032583A2075
:10011000253038620A000A722F63203031323334BE
:100120003536370A00018C028A048C33A32BA1F1E7
:10013000A428310022000050044F0435342A221F25
:100140000014001A00160004001D001B0006002009
:100150000021001500080007000900190005002211
:100160000023001C0017000A000B00110000001EF5
:10017000002900C400E000CC00E200E3002C0024D1
:1001800000250018000C000E000D001000000031CA
:100190000035002A00C600C100E500CB00E70026BC
:1001A0000027001200130033000F00360000002D5E
:1001B000002E0030002F003400380037000000C24D
:1001C000001E001F00AA00A9000000000000003C63
:1001D000003D002100200000004E0000004B003ECA
:1001E000003F0023002200000050004A000000C031
:1001F000003500010029000100010001002C004031
:1002000000410024002500520051004E000000492A
:10021000004C00310028000100E50001000100420F
:100220000043002600270000004F004B0000004460
:100230000045002E002D00310000004D0000001F81
:100240000014001A00160004001D001B0006002008
:10025000002100090007000800170019000500220E
:100260000023000D000E000A001C00130000001EF9
:10027000002900C400E000CC00E200E3002C0024D0
:10028000002500180015000C0011001000000031BE
:100290000035002A00C600C100E500CB00E70026BB
:1002A0000027000F0033000B001200360000002D65
:1002B000002E0030002F0034003800370000000A04
:1002C00044454255473A20656E61626C65642E0A6A
:1002D000005B735D004B6579626F617264207374BB
:1002E0006172742E0A005B575D005B535D005B52C8
:1002F0005D005B445D005B435D0012034800480005
:100300004B00420020006D006F00640000000C03F1
:1003100071002E006D002E006B0000000403090424
:1003200009027400040100A0FA090400000103019D
:100330000100092111010001224000070581030885
:10034000000A090401000103010200092111010052
:1003500001224D000705820308000A09040200017A
:100360000300000009211101000122360007058366
:100370000308000A09040300020300000009211118
:100380000100012220000705840320000107050465
:10039000032000011201100100000008EDFEFECA5A
:1003A0000401010200010631FF0974A1010975155C
:1003B0000025FF9520750881020976150025FF9517
:1003C0002075089102C005010980A101850216016E
:1003D0000026B7001A01002AB700751095018100A8
:1003E000C0050C0901A1018503160100269C021A13
:1003F00001002A9C02751095018100C005010902C7
:10040000A1010901A100050919012905150025010E
:10041000950575018102950175038101050109307A
:1004200009311581257F95027508810609381581E6
:10043000257F950175088106050C0A38021581256E
:100440007F950175088106C0C005010906A1010557
:100450000719E029E7150025019508750181029526
:100460000175088101050819012905950575019196
:10047000029501750391010507190029FF15002652
:10048000FF00950675088100C00A0025303258200B
:10049000006B6579626F6172645F7265706F727410
:1004A0003A20004B6579626F617264204C45447359
:1004B0002073746174653A2025780A00646F6E6554
:1004C0002E0A00626F6F676D6167696320736361F5
:1004D0006E3A202E2E2E2000290A002575002F00AE
:1004E0002575005D2800256400200025640020009B
:1004F00025640020002564007C0025303258006D02
:100500006F7573656B6579205B62746E7C7820799A
:10051000207620685D287265702F61636C293A200F
:100520005B006D6B5F776865656C5F74696D655FB7
:10053000746F5F6D6178203D2025640A006D6B5FEC
:10054000776865656C5F6D61785F73706565642061
:100550003D2025640A006D6B5F74696D655F746F83
:100560005F6D6178203D2025640A006D6B5F6D61D1
:10057000785F7370656564203D2025640A006D6BAB
:100580005F696E74657276616C203D2025640A0097
:100590006D6B5F64656C6179203D2025640A006D98
:1005A0006B5F776865656C5F74696D655F746F5FBD
:1005B0006D6178203D2025640A006D6B5F7768656A
:1005C000656C5F6D61785F7370656564203D2025A3
:1005D000640A006D6B5F74696D655F746F5F6D6158
:1005E00078203D2025640A006D6B5F6D61785F7334
:1005F00070656564203D2025640A006D6B5F696E3F
:1006000074657276616C203D2025640A006D6B5F15
:1006100064656C6179203D2025640A000A00257517
:1006200000363A20776865656C5F74696D655F7444
:100630006F5F6D61783A20000A00257500353A2019
:10064000776865656C5F6D61785F73706565643A46
:1006500020000A00257500343A2074696D655F74C6
:100660006F5F6D61783A20000A00257500333A20EB
:100670006D61785F73706565643A20000A002575C6
:1006800000323A20696E74657276616C286D732948
:100690003A20000A00257500313A2064656C6179C2
:1006A000282A31306D73293A20000A092D2056611D
:1006B0006C756573202D0A004D3E004D25643E206B
:1006C000003F007365742064656661756C740A0090
:1006D000433E200077686572652064656C74613AFA
:1006E00020637572736F723D25642C207768656591
:1006F0006C3D25640A53656520687474703A2F2F29
:10070000656E2E77696B6970656469612E6F7267BB
:100710002F77696B692F4D6F7573655F6B657973A3
:100720000A000A092D204D6F7573656B6579202DC0
:100730000A4553432F713A09717569740A313A09B0
:1007400064656C6179282A31306D73290A323A095F
:10075000696E74657276616C286D73290A333A0983
:100760006D61785F73706565640A343A0974696D08
:10077000655F746F5F6D61780A353A097768656502
:100780006C5F6D61785F73706565640A363A0977EE
:100790006865656C5F74696D655F746F5F6D6178C6
:1007A0000A0A703A097072696E742076616C756518
:1007B000730A643A097365742064656661756C74C4
:1007C000730A75703A092B310A646F776E3A092DF6
:1007D000310A706775703A092B31300A7067646F9F
:1007E000776E3A092D31300A0A7370656564203DD1
:1007F0002064656C7461202A206D61785F73706578
:100800006564202A2028726570656174202F207429
:10081000696D655F746F5F6D6178290A003F004DF7
:100820003E2000433E20004C25640A0074696D653B
:10083000725F636F756E743A202530346C580A000D
:100840006B6579626F6172645F69646C653A2025DB
:10085000580A006B6579626F6172645F70726F74C1
:100860006F636F6C3A2025580A00686F73745F6B72
:100870006579626F6172645F6C65647328293A20E0
:1008800025580A000A092D20537461747573202DB0
:100890000A004743433A20342E392E322041565223
:1008A0002D4C4942433A20312E382E3120415652A8
:1008B0005F415243483A20617672350A004F5054E6
:1008C000494F4E533A204C55464120424F4F544DCC
:1008D00041474943204D4F5553454B4559204558B5
:1008E0005452414B455920434F4E534F4C452043A2
:1008F0004F4D4D414E44203531320A004255494C4E
:10090000443A20646462613339332D6469727479C6
:10091000202830393A30383A3039204A756E203143
:10092000342032303136290A005649443A20307892
:100930004645454428712E6D2E6B29205049443A76
:10094000203078434146452848484B42206D6F642B
:1009500029205645523A203078303130340A00444C
:100960004553433A20712E6D2E6B206B6579626F73
:10097000617264206669726D7761726520666F725C
:100980002048484B420A000A092D205665727369B7
:100990006F6E202D0A000A092D20436F6E736F6C55
:1009A00065202D0A4553432F713A09717569740A00
:1009B0006D3A096D6F7573656B65790A000A092DCB
:1009C000204D61676963202D0A443A0944656275C8
:1009D00067204D65737361676520546F67676C6549
:1009E0000A583A094D6174726978204465627567E6
:1009F000204D6F646520546F67676C65202D205310
:100A0000686F77206B6579707265737365732069A1
:100A10006E206D617472697820677269640A4B3A5E
:100A2000094B6579626F6172642044656275672065
:100A3000546F67676C65202D2053686F77206B6556
:100A4000797072657373207265706F72740A4D3AB3
:100A5000094465627567204D6F75736520546F6733
:100A6000676C650A563A0956657273696F6E0A5368
:100A70003A095374617475730A433A09416374699E
:100A80007661746520436F6E736F6C65204D6F6483
:100A9000650A46312D4631303A09537769746368E7
:100AA00020746F204C6179657220302D39202846E2
:100AB0003130203D204C30290A302D393A09537706
:100AC0006974636820746F204C6179657220302DE1
:100AD000390A4553433A0953776974636820746F40
:100AE000204C6179657220302028616C7465726ECB
:100AF000617465206B65792031290A47524156455A
:100B00003A0953776974636820746F204C61796582
:100B10007220302028616C7465726E617465206B80
:100B200065792032290A50415553453A094A756D75
:100B30007020746F20426F6F746C6F6164657220F7
:100B4000285265736574290A453A095072696E74B2
:100B500020454550524F4D2053657474696E67733C
:100B60000A000A002575002E6E6B726F3A20000A8B
:100B7000002575002E737761705F6261636B736C23
:100B80006173685F6261636B73706163653A2000D3
:100B90000A002575002E737761705F677261766554
:100BA0005F6573633A20000A002575002E6E6F5F43
:100BB0006775693A20000A002575002E7377617009
:100BC0005F72616C745F726775693A20000A002574
:100BD00075002E737761705F6C616C745F6C677504
:100BE000693A20000A002575002E636170736C6FEE
:100BF000636B5F746F5F636F6E74726F6C3A20002B
:100C00000A002575002E737761705F636F6E7472D2
:100C10006F6C5F636170736C6F636B3A20000A00E6
:100C200025303258006B65796D61705F636F6E6659
:100C300069672E7261773A20000A002575002E6DD3
:100C40006F7573653A20000A002575002E6B657973
:100C5000626F6172643A20000A002575002E6D6192
:100C6000747269783A20000A002575002E656E615D
:100C7000626C653A20000A002530325800646562D3
:100C800075675F636F6E6669672E7261773A2000E1
:100C90000A0025750064656661756C745F6C617926
:100CA00065723A20003F000A6D6F7573653A206FD8
:100CB00066660A000A6D6F7573653A206F6E0A00EA
:100CC0000A6B6579626F6172643A206F66660A002A
:100CD0000A6B6579626F6172643A206F6E0A000A6E
:100CE0006D61747269783A206F66660A000A6D61F8
:100CF000747269783A206F6E0A000A6465627567DB
:100D00003A206F66660A000A64656275673A206F6A
:100D10006E0A000A0A4A756D70696E6720746F204A
:100D2000626F6F746C6F616465722E2E2E200043AB
:100D30003E20006565636F6E6669673A0A0011249C
:100D40001FBECFEFDAE0DEBFCDBF04B603FE24C086
:100D50008091E0019091E101A091E201B091E30165
:100D60008730904BA740B04BB9F41092E00110923D
:100D7000E1011092E2011092E30114BE84B7877F73
:100D800084BF88E10FB6F8948093600010926000F1
:100D90000FBEE0E0FFE3099511E0A0E0B1E0EEE86E
:100DA000F6E502C005900D92A233B107D9F711E024
:100DB000A2E3B1E001C01D92A03EB107E1F70E949D
:100DC000E10E0C94452B0C940000FF93EF93E091FF
:100DD0003201F0913301309709F00995EF91FF91BD
:100DE0000895FC018591803011F0EFDFFBCF08956D
:100DF000FF27E0E230E247FF0CC0419597FF09C0B2
:100E0000EDE26095709580959095611D711D811D35
:100E1000911D27FF02C0219530E350E2AA27660FFB
:100E2000771F881F991FAA1FA41710F0A41B639592
:100E30005A95A9F7AA3008F0A95FA05DAF93F39582
:100E4000611571058105910541F7ED3211F4EF93BC
:100E5000F395F21718F43F93F395FBCF8F91B5DF1D
:100E6000FA95E1F70895E991F9918591803021F0A3
:100E7000853219F0AADFF9CF089520E0E894559162
:100E80005532C1F3503311F4689455915A3348F4F4
:100E9000505390F3220F022E220F220F200D250F08
:100EA000F4CF0EF4219589919991533619F3533764
:100EB00029F1533559F1BC0188279927E8945C360C
:100EC00021F48991999168945591543639F446EFFB
:100ED0007EF077FF0DC08FEF9FEF0AC055374AE0D5
:100EE00039F0583540E121F0523642E009F00895DA
:100EF000FF93EF937DDFEF91FF91B7CFFF93EF93D8
:100F0000FC0181918030B9F360DFFBCFFF93EF9359
:100F100068DFF1CFDF93CF93CDB7DEB72596A3DFA0
:100F2000CF91DF9108958FEF84B980E485B9579808
:100F30005F9A2E9A2F98ECE3F1E088E08E0F1192E1
:100F40008E13FDCFE4E3F1E088E08E0F11928E1353
:100F5000FDCF8CE391E0909347018093460184E3B9
:100F600091E090934501809344010895EF92FF92A0
:100F70000F931F93CF93DF9380914401909145018C
:100F8000209146013091470130934501209344015F
:100F90009093470180934601C0E0D0E0EE24E394B3
:100FA000F12C0FEF10E020E030E085B1807C8C2B3D
:100FB000A90193E0440F551F9A95E1F7842B85B959
:100FC0008AE18A95F1F700C0E0914401F091450172
:100FD000EC0FFD1F808190E0022E02C09595879551
:100FE0000A94E2F780FD2F9A95E39A95F1F70000B5
:100FF000E6B52E988AE18A95F1F700C04091460146
:1010000050914701DA01AC0FBD1F4F9B0AC0C701C9
:10101000022E01C0880F0A94EAF780959C918923DB
:1010200008C06C91C701022E01C0880F0A94EAF72C
:10103000862B8C9386B56E2F70E08E1728F086B5C0
:1010400090E0861B970B06C0E6B5C801861B970B80
:101050008E0F911D069758F0E0914401F0914501E3
:10106000EC0FFD1F8081FA01EC0FFD1F80839AE1D8
:101070009A95F1F700C02F982E9A8BE291E0019794
:10108000F1F700C000002F5F3F4F2830310509F015
:101090008CCFA0914601B0914701AC0FBD1FE091EC
:1010A0004401F0914501EC0FFD1F9C918081981740
:1010B00051F00E94A31F60934801709349018093EF
:1010C0004A0190934B012196C830D10509F06BCFAE
:1010D0008091D601853021F08091D601811111C017
:1010E000609148017091490180914A0190914B01B2
:1010F0000E94D91F613177428105910510F00E944D
:10110000281F81E0DF91CF911F910F91FF90EF9009
:1011100008952091460130914701F901E80FF11D32
:10112000808108950F931F93CF93DF9386E191E021
:101130000E94F106C0E0D0E00AE011E0E091460133
:10114000F0914701EC0FFD1F80810E94121F1F923A
:101150008F93DF93CF931F930F930E948A0721965B
:101160000F900F900F900F900F900F90C830D105F7
:1011700029F7DF91CF911F910F9108951F93CF937E
:10118000DF93C7E0D0E010E0E0914601F091470125
:10119000EC0FFD1F808190E00E94061F180F219721
:1011A00098F7812FDF91CF911F91089508950895A9
:1011B00061110BC0FC018281882321F085EE0E9421
:1011C000A21503C085EE0E94411680E090E00895CC
:1011D00081E0089581E008950C94EA0808950F9342
:1011E0001F93CF93DF938C01FC01C081D181CE018D
:1011F0000E94D01DBE010E949809EC01B8010E9416
:10120000EC08882309F48DC0F8018281882309F451
:101210004AC08091570181111FC0C431F0E5DF073A
:1012200009F051C00E94EE0881E0809357010E94AE
:10123000971F909356018093550110924E01109282
:10124000500110924F0110925201109251011092D0
:1012500054011092530165C080915501909156013F
:101260000E94AF1F883C910570F480914E01E82FD9
:10127000F0E0EE0FFF1FE15BFE4FD183C0838F5F75
:1012800080934E014EC0C43880E5D80721F0C538A0
:10129000D04501F13AC0F8018281882341F01092D3
:1012A0004C0182E01EC0C438E0E5DE0759F58091AC
:1012B0004C01811106C086E20E94A21586E20E94BE
:1012C000411682E01CC0C438F0E5DF0741F3C538A1
:1012D000D045D9F4F8018281882331F010924D0174
:1012E00080E20E9469161DC080914D01811106C0E7
:1012F00087E20E94A21587E20E94411680E20E94C6
:1013000070160FC0C538D04529F381E080934C0199
:1013100080934D01C801DF91CF911F910F910C94E3
:10132000E80880E0DF91CF911F910F910895089513
:10133000E72FF0E098E0899FE00DF11D112483E094
:10134000EE0FFF1F8A95E1F7E60FF11DEE0FFF1F6D
:10135000E15CFE4F859194910895880F991FFC01DF
:10136000EB55F040859194910895880F991FFC01E9
:10137000EB5DFE4F8591949108950F931F93CF934A
:10138000DF93EC01811520E3920750F5C11580E24F
:10139000D80708F0C3C0CB3BD10590F4C83AD105BB
:1013A00008F06AC0C53AD10508F05BC0C430D10569
:1013B00008F0D4C1219709F0CEC101E010E00EC2BF
:1013C000CF3FD10511F008F0C9C1C03FD10508F0E9
:1013D000A2C0CE01805E9109089708F4BFC1BBC1CD
:1013E000C13090E5D90709F4A2C020F5C0318FE4DF
:1013F000D80770F4C11590E4D90708F094C0C1155E
:1014000021E3D20708F0A7C1DD278E01106CE6C1E9
:10141000C115D04509F09FC10E94D7188FEF94E302
:101420002CE0815090402040E1F700C000000E9475
:101430002A20D4C1C11597E5D90758F4C03121E558
:10144000D20708F020C1C43180E5D80708F479C07C
:1014500082C1CE0190578115904108F07CC1DF70A8
:1014600077C1C53AD10509F47BC1C63AD10509F067
:101470007AC102E810E4B2C1C83AD10509F476C1D4
:10148000C93AD10509F475C1CA3AD10509F474C144
:10149000CB3AD10509F473C1CC3AD10509F472C134
:1014A000CD3AD10509F471C1C03BD10509F470C131
:1014B000CE3AD10509F46FC1CF3AD10509F46EC116
:1014C000C13BD10509F46DC1C23BD10509F46CC122
:1014D000C33BD10509F46BC1C43BD10509F46AC112
:1014E000C53BD10509F469C1C63BD10509F468C102
:1014F000C73BD10509F467C1C83BD10509F466C1F2
:10150000C93BD10509F465C1CA3BD10509F464C1E1
:1015100000E014E463C18E01106560C1CE019F70CC
:101520000E94B5095CC1DF708E01106A57C18FEB54
:1015300092E00E94F1068091C10181608093C10117
:101540004DC10E94D021811102C00E94B6210E948B
:10155000ED2190E09093E0018093DF01C23080E5BF
:10156000D80721F48091DF01816086C0C43090E506
:10157000D90721F48091DF0182607EC0C63020E56A
:10158000D20721F48091DF01846076C0C83080E505
:10159000D80719F48091DF0127C0CA3090E5D90738
:1015A00021F48091DF01806167C0CC3020E5D20753
:1015B00021F48091DF0180625FC0CE3080E5D807E2
:1015C00021F48091DF01806457C0C03190E5D907D4
:1015D00021F48091DF0180684FC0C23120E5D2073D
:1015E00029F48091DF018460886046C0C33080E5C3
:1015F000D80721F48091DF018E7F3EC0C53090E591
:10160000D90721F48091DF018D7F36C0C73020E5F6
:10161000D20721F48091DF018B7F2EC0C93080E595
:10162000D80719F48091DF0126C0CB3090E5D907A7
:1016300021F48091DF018F7E1FC0CD3020E5D207DD
:1016400021F48091DF018F7D17C0CF3080E5D8076E
:1016500021F48091DF018F7B0FC0C13190E5D90764
:1016600021F48091DF018F7707C0C331D04531F479
:101670008091DF018B7F877F8093DF018091DF0185
:101680000E94F121ABC08D2F99278F70992781304F
:101690009105D9F49E012370332702C0880F991F4A
:1016A0002A95E2F79C688E0144E0000F111F4A95CD
:1016B000E1F700271370802B912B53E0CC0FDD1F37
:1016C0005A95E1F7C076DD272FC08230910531F4BD
:1016D000DC2FCC278E01016F106A80C0833091050A
:1016E00069F4CE018370992701E010E002C0000F79
:1016F000111F8A95E2F7C8019C680FC084309105DC
:10170000B9F4CE018370992701E010E002C0000F08
:10171000111F8A95E2F7C8019A6823E0CC0FDD1FFC
:101720002A95E1F7C07ED7708C010C2B1D2B56C07B
:101730008530910531F4DC2FCC278E01046F106ABF
:101740004DC0069709F04AC0CF71DD27DC2FCC27AA
:101750008E01106243C000E010E040C08E013EC028
:1017600001E810E43BC003E810E438C002EE14E4E2
:1017700035C009EE14E432C00AEE14E42FC005EBC4
:1017800014E42CC006EB14E429C007EB14E426C0D3
:101790000CEC14E423C00DEC14E420C003E815E4C1
:1017A0001DC00AE815E41AC002E915E417C004E9EF
:1017B00015E414C001E216E411C003E216E40EC001
:1017C00004E216E40BC005E216E408C006E216E4E3
:1017D00005C007E216E402C00AE216E4C801DF9180
:1017E000CF911F910F910895E72FF0E098E0899F26
:1017F000E00DF11D112483E0EE0FFF1F8A95E1F744
:10180000E60FF11DEE0FFF1FE15CFE4F85919491F5
:10181000803E9105E0F4803C910558F581339105B7
:1018200009F46FC048F48932910509F463C08A3223
:10183000910509F46DC072C089339105E9F08238D1
:101840009105D1F08533910509F44DC067C0833E01
:10185000910581F138F4803E9105B9F0823E910501
:10186000D9F05CC0863E910561F1873E9105A1F1FA
:1018700055C00E94AD0908952091DF0120FD02C0EE
:1018800021FF4CC080EE90E049C08091DF0180FFD5
:10189000F9CF89E390E042C08091DF0182FF0EC062
:1018A0008091DF0184FF03C080E090E037C083EEC9
:1018B00090E034C08091DF0182FFF2CF82EE90E0B1
:1018C0002DC08091DF0183FF0BC08091DF0184FD7B
:1018D000EBCF87EE90E022C08091DF0183FFF5CF50
:1018E00086EE90E01BC08091DF0185FF07C089E292
:1018F00090E014C08091DF0185FFF9CF85E390E08F
:101900000DC08091DF0186FF07C08AE290E006C02B
:101910008091DF0186FFF9CF81E390E00E94BD094D
:10192000089508950C94910C8091630108959FB7D8
:10193000F89410925A019FBF9091D601943009F00B
:1019400057C09091E9009F703091EC00232F2170D7
:1019500030FD20E8922B24E02093E9002091EB0059
:1019600020FF43C02091EE0027FF3FC02091580187
:10197000222321F02091E80025FF37C01092580162
:1019800026E03091E80035FD15C03091D6013430A5
:1019900061F53091EB0035FD28C0215021F481E044
:1019A0008093580122C0EFE9FFE03197F1F700C0C2
:1019B0000000E7CF8093F1008091E80085FD0AC028
:1019C0008091E80080FFFCCF8091E8008E778093C3
:1019D000E80006C08FB7F89421E020935A018FBF2A
:1019E0009F709093E90080E008959F709093E900C4
:1019F0008FEF0895CF93DF9300D01F92CDB7DEB75E
:101A00009C018091D601843019F593E099833B8342
:101A10002A839093E9008FEF9091E800815095FD23
:101A200006C095ED9A95F1F700008111F5CF8091F0
:101A3000E80085FF0DC040E050E063E070E0CE01BB
:101A400001960E94930F8091E8008E778093E800C2
:101A50000F900F900F90DF91CF910895CF93DF9368
:101A600000D01F92CDB7DEB72091D601243021F5EA
:101A700022E029839B838A8383E08093E9008FEFB0
:101A80009091E800815095FD06C095ED9A95F1F78B
:101A900000008111F5CF8091E80085FF0DC040E086
:101AA00050E063E070E0CE0101960E94930F8091B8
:101AB000E8008E778093E8000F900F900F90DF91F1
:101AC000CF9108952091D6012430F1F422E02093A3
:101AD000E9002FEF3091E800215035FD06C035EDCB
:101AE0003A95F1F700002111F5CF2091E80025FF8C
:101AF0000BC040E050E065E070E00E94930F8091E1
:101B0000E8008E778093E8000895CF93DF932091CB
:101B1000D601243039F521E02093E9002FEF3091F0
:101B2000E800215035FD06C035ED3A95F1F700008B
:101B30002111F5CF2091E80025FF14C0EC0140E011
:101B400050E068E070E00E94930F8091E8008E778B
:101B50008093E80088E0FE01ABE5B1E001900D92D2
:101B60008A95E1F7DF91CF91089586EF92E00E9488
:101B7000F1068091D501811109C00E9428110E94AF
:101B800085118091E20084608093E200089582EFE5
:101B900092E00E94F1061092D50108958EEE92E037
:101BA0000C94F1068AEE92E00C94F10686EE92E037
:101BB0000E94F1060C945F1F209159012F5F822F24
:101BC00062E30E94D52A992319F0209359010895C0
:101BD0001092590180915A01882371F18091D601A8
:101BE000843041F58091E9008F702091EC00922FB4
:101BF000917020FD90E8892B94E09093E9009091FA
:101C0000EB0090FF14C09091EE0097FF10C09091F0
:101C1000E80095FF03C01092F100F9CF9091E80021
:101C200090FF05C09091E8009E779093E8008F7038
:101C30008093E90010925A01089542E061EC81E03E
:101C40000E94A21042E061EC82E00E94A21042E0F9
:101C500061EC83E00E94A21042E261EC84E00C940B
:101C6000A2108091D801833009F453C030F4813040
:101C700071F0823009F48CC008958A3009F478C07C
:101C80008B3009F45EC0893009F09AC020C0809181
:101C9000D701813A09F094C08091E800877F809352
:101CA000E8008091DB019091DC01892B21F468E050
:101CB0008BE591E003C060E080E090E070E00E947E
:101CC000DE0F8091E8008B778093E8000895809183
:101CD000D701813209F074C08091DB019091DC0161
:101CE000892B09F06DC08091E800877F8093E80020
:101CF0008091E80082FD05C08091D6018111F8CF66
:101D00005FC08091F100809363018091E8008B7740
:101D100053C08091D701813A09F052C08091DB0114
:101D20009091DC01892B09F04BC08091E800877FFE
:101D30008093E8008091E80080FFFCCF80910A0149
:101D400036C08091D7018132D9F58091DB01909125
:101D5000DC01892BA9F58091E800877F8093E8005A
:101D60000E94D7108091D90180930A010C94D71852
:101D70008091D701813221F58091E800877F80939F
:101D8000E8000E94D7108091DA01809364010895E1
:101D90008091D701813AA1F48091E800877F8093F8
:101DA000E8008091E80080FFFCCF8091640180937F
:101DB000F1008091E8008E778093E8000C94D710B2
:101DC000089584B7877F84BF88E10FB6F894809325
:101DD0006000109260000FBE80E880936100109256
:101DE00061000E94B7140E9428110E948511809101
:101DF000E20084608093E20087E99CE00E94011F7A
:101E000078940E940A140E94B91480E091E00E9424
:101E1000251485ED92E00E94F1068091D60185306F
:101E200089F481ED92E00E94F1060E94281F8091C2
:101E3000D401882391F30E94511F882371F30E94DB
:101E40007D0FEBCF0E94DD14E8CF292F33272330FD
:101E50003105C9F064F42130310581F022303105BB
:101E600009F043C084E790E020E233E042C0213231
:101E70003105F1F02232310541F137C082E190E0C5
:101E800024E933E036C099278130910541F0823052
:101E9000910541F0892B49F5ECE1F3E005C0EEE056
:101EA000F3E002C0EAEFF2E0849190E09F0121C0EC
:101EB0006430D8F4E62FF0E0EE0FFF1FE15EFE4F36
:101EC0002081318189E090E014C0643070F470E0CA
:101ED000FB01EE0FFF1FE95EFE4F20813181FB0108
:101EE000ED5EFE4F808190E004C080E090E020E055
:101EF00030E0FA0131832083089580E189BD82E1D9
:101F000089BD09B400FEFDCF8091D8008F7D8093FC
:101F1000D8008091E00082608093E0008091E00032
:101F200081FDFCCF0895CF92DF92EF92FF920F9345
:101F30001F93CF93DF93EC018B016A010E94F6108F
:101F4000811133C0C114D10439F0F601808191812F
:101F5000081B190BC80FD91FE12CF12C0115110515
:101F600019F18091E80085FD16C08091E8008E7718
:101F70008093E800C114D10449F0F6018081918179
:101F8000E80EF91EF182E08285E00FC00E94F61093
:101F9000882321F30AC089918093F100015011092F
:101FA000FFEFEF1AFF0ADACF80E0DF91CF911F91A8
:101FB0000F91FF90EF90DF90CF9008952091DD0179
:101FC0003091DE012617370748F06115710539F4A5
:101FD0002091E8002E772093E80001C0B90140E08D
:101FE00061157105A9F12091D601222309F443C09E
:101FF000253009F442C02091E80023FD40C0209123
:10200000E80022FD32C02091E80020FFE9CF409196
:10201000F3002091F20030E0342BFC01CF01611578
:10202000710559F02830310540F481918093F10019
:10203000615071092F5F3F4FF1CF41E028303105EA
:1020400009F040E02091E8002E772093E800C8CF07
:102050004111C9CF0AC08091D601882361F0853033
:1020600061F08091E80083FD0AC08091E80082FF62
:10207000F2CF80E0089582E0089583E0089581E042
:1020800008952091DD013091DE012617370748F0D1
:102090006115710539F42091E8002E772093E8004E
:1020A00001C0B901FC0120E06115710591F1809139
:1020B000D601882309F440C0853009F43FC08091DF
:1020C000E80083FD3DC08091E80082FD2FC0809133
:1020D000E80080FFE9CF2091F3008091F20090E0CA
:1020E000922B6115710559F08830910540F42491C7
:1020F0002093F1003196615071090196F2CF21E0F1
:10210000089709F020E08091E8008E778093E8003E
:10211000CBCF2111CCCF0AC08091D601882361F0AA
:10212000853061F08091E80083FD0AC08091E8006D
:1021300082FFF2CF80E0089582E0089583E0089561
:1021400081E00895982F973058F59093E9009817FB
:1021500039F07091EC002091ED005091F00003C037
:10216000242F762F50E021FF19C03091EB003E7FE5
:102170003093EB003091ED003D7F3093ED003091D6
:10218000EB0031603093EB007093EC002093ED0096
:102190005093F0002091EE0027FF07C09F5FD3CF40
:1021A0008F708093E90081E0089580E00895809128
:1021B000D70187FF11C08091E80082FD05C08091A2
:1021C000D6018111F8CF11C08091E8008B770BC048
:1021D0008091D601882349F08091E80080FFF8CFF4
:1021E0008091E8008E778093E80008952091E400C4
:1021F0003091E50095E64091EC00842F817040FF1E
:1022000022C08091E80080FD1CC08091D601882307
:1022100091F0853091F08091EB0085FD10C04091E8
:10222000E4005091E5004217530729F39A019150B9
:1022300011F784E0089582E0089583E0089581E035
:10224000089580E008954091E80042FFDECF0895B0
:102250000E9496110E949E11E0EEF0E08081816064
:102260008083E8EDF0E080818F77808319BCA7ED53
:10227000B0E08C918E7F8C9380818F7E80831092D2
:10228000D50108950F931F93CF93DF930E9496116A
:102290000E949E11C8EDD0E088818F778883888165
:1022A0008068888388818F7D888319BC1092D601CD
:1022B0001092D2011092D4011092D30100EE10E0DE
:1022C000F80180818B7F808388818160888342E0F0
:1022D00060E080E00E94A210E1EEF0E080818E7F5D
:1022E0008083E2EEF0E0808181608083808188607D
:1022F0008083F80180818E7F8083888180618883DC
:10230000DF91CF911F910F910895E8EDF0E080816A
:102310008F7E8083E7EDF0E080818160808384E0C0
:1023200082BF81E08093D5010C944211E8EDF0E08A
:1023300080818E7F80831092E20008951092DA00EF
:102340001092E10008951F920F920FB60F92112480
:102350002F933F934F935F936F937F938F939F93AD
:10236000AF93BF93EF93FF938091E10082FF0BC087
:102370008091E20082FF07C08091E1008B7F809313
:10238000E1000E94DC0D8091DA0080FF1FC0809187
:10239000D80080FF1BC08091DA008E7F8093DA0026
:1023A0008091D90080FF0DC080E189BD82E189BDA7
:1023B00009B400FEFDCF81E08093D6010E94B50DE7
:1023C00005C019BC1092D6010E94C70D8091E10092
:1023D00080FF19C08091E20080FF15C08091E2006B
:1023E0008E7F8093E2008091E20080618093E20022
:1023F0008091D80080628093D80019BC85E08093DA
:10240000D6010E94D20D8091E10084FF30C08091FE
:10241000E20084FF2CC080E189BD82E189BD09B45E
:1024200000FEFDCF8091D8008F7D8093D8008091F1
:10243000E1008F7E8093E1008091E2008F7E8093A7
:10244000E2008091E20081608093E2008091D201FD
:10245000882311F084E007C08091E30087FD02C06B
:1024600081E001C083E08093D6010E94D60D809167
:10247000E10083FF29C08091E20083FF25C08091A5
:10248000E100877F8093E10082E08093D601109283
:10249000D2018091E1008E7F8093E1008091E20083
:1024A0008E7F8093E2008091E20080618093E20061
:1024B00042E060E080E00E94A2108091F00088601D
:1024C0008093F0000E94CE0DFF91EF91BF91AF91EC
:1024D0009F918F917F916F915F914F913F912F913C
:1024E0000F900FBE0F901F9018951F920F920FB66E
:1024F0000F9211242F933F934F935F936F937F938A
:102500008F939F93AF93BF93CF93DF93EF93FF93FB
:10251000C091E900CF708091EC00D82FD17080FD80
:10252000D0E81092E9008091F000877F8093F0005E
:1025300078940E94B9121092E9008091F0008860AE
:102540008093F000CD2BCF70C093E900FF91EF9105
:10255000DF91CF91BF91AF919F918F917F916F91BB
:102560005F914F913F912F910F900FBE0F901F9051
:1025700018951F93CF93DF93CDB7DEB7AA970FB609
:10258000F894DEBF0FBECDBFE7EDF1E088E08E0F1F
:102590009091F10091938E13FBCF0E94310E8091A8
:1025A000E80083FF1FC18091D7019091D801492F86
:1025B00050E04A30510508F015C1FA01EA5AFF4FC0
:1025C0000C94F52A803881F0823809F00BC1809193
:1025D000DB018F708093E9008091EB0085FB8827F9
:1025E00080F91092E90006C08091D3019091D40146
:1025F000911182609091E800977F9093E80080931A
:10260000F1001092F100C8C0282F2D7F09F0EAC018
:10261000882319F0823061F0E5C08091D9018130C2
:1026200009F0E0C0933009F080E08093D4012BC022
:102630008091D901811127C08091DB018F7009F44D
:10264000D1C08093E9002091EB0020FF1CC09330A3
:1026500021F48091EB00806214C09091EB009061B6
:102660009093EB0021E030E0A90102C0440F551F18
:102670008A95E2F74093EA001092EA008091EB001D
:1026800088608093EB001092E9008091E800877FDA
:1026900086C08111A7C01091D9011F778091E300F6
:1026A0008078812B8093E3008091E800877F80937E
:1026B000E8000E94D7108091E80080FFFCCF809155
:1026C000E30080688093E300111102C082E001C042
:1026D00083E08093D60186C08058823008F082C0A3
:1026E0008091D9019091DA018C3D53E0950779F5FD
:1026F00083E08A838AE289834FB7F894DE011396D8
:1027000020E03EE051E2E32FF0E050935700E491E7
:1027100020FF03C0E295EF703F5FEF708E2F90E0D7
:10272000EA3010F0C79601C0C0968D939D932F5F3D
:10273000243149F74FBF8091E800877F8093E800FC
:102740006AE270E0CE0101960E94DE0F14C0AE0175
:102750004F5F5F4F6091DB010E94250FBC01009726
:1027600009F440C09091E800977F9093E800898138
:102770009A810E9441108091E8008B778093E80055
:1027800031C0803879F58091E800877F8093E80038
:102790008091D2018093F1008091E8008E77809340
:1027A000E8000E94D7101EC081111CC09091D90171
:1027B0009230C0F48091E800877F8093E800909386
:1027C000D2010E94D7108091D201811106C0809160
:1027D000E30087FD02C081E001C084E08093D60160
:1027E0000E941D0E8091E80083FF0AC08091E800DE
:1027F000877F8093E8008091EB0080628093EB00FC
:10280000AA960FB6F894DEBF0FBECDBFDF91CF9171
:102810001F910895CF938091D6018823A1F0C09194
:10282000E900CF709091EC00892F817090FD80E8D5
:10283000C82B1092E9008091E80083FD0E94B91234
:10284000CF70C093E900CF91089590936A0180936F
:1028500069010895E0916901F0916A01309721F0D2
:102860000190F081E02D099480E00895EF92FF92AD
:102870000F931F93CF93DF93E0916901F0916A0169
:102880003097B1F18C010280F381E02D09958091A0
:10289000C10182FF2DC080FF04C081E994E00E9445
:1028A000F106E80118E08BE8E82E84E0F82E80912C
:1028B000C10180FF0BC088811F928F93FF92EF921E
:1028C0000E948A070F900F900F900F901150219641
:1028D0001111EDCF8091C10180FF0AC089E894E019
:1028E000DF91CF911F910F91FF90EF900C94F10623
:1028F000DF91CF911F910F91FF90EF900895E0919C
:102900006901F0916A01309721F00480F581E02D92
:102910000994089520916701309168018217930707
:1029200071F09093680180936701E0916901F091E3
:102930006A01309721F00680F781E02D099408950F
:1029400020916501309166018217930771F0909391
:10295000660180936501E0916901F0916A01309709
:1029600021F00084F185E02D0994089508950C94D8
:10297000B6140E948E1F0E9493070C948820CF9358
:10298000DF931F92CDB7DEB79091C10192FF10C0C7
:1029900090FF0EC01F928F9323EA34E03F932F9352
:1029A00089830E948A070F900F900F900F90898162
:1029B0000F90DF91CF910C94920C9F92AF92BF92A7
:1029C000CF92DF92EF92FF920F931F93CF93DF93FB
:1029D00000D000D000D0CDB7DEB70E94B60707E028
:1029E00010E0AA24A394B12C902E802F0E94890875
:1029F000980124593E4F6901F901F080F826A1F4AD
:102A00000150110988F78FEF89838A831B820E9406
:102A1000971F8160782F9D838C8349815A816B81B8
:102A20008D810E9474152FC09091C10191FF04C047
:102A30008E830E9492088E8127E030E0A501022E4D
:102A400001C0440F0A94EAF7E42E4F21C1F0298314
:102A50009A828E2191E009F490E09B830E94971F57
:102A60008160782F9D838C8349815A816B818D8110
:102A70000E947415F6018081E826E08204C021508E
:102A80003109E0F6BDCF0E94F22310916B010E9444
:102A90002A141817B9F00E942A1480936B01269605
:102AA0000FB6F894DEBF0FBECDBFDF91CF911F915F
:102AB0000F91FF90EF90DF90CF90BF90AF909F90DD
:102AC0000C94BF1426960FB6F894DEBF0FBECDBF90
:102AD000DF91CF911F910F91FF90EF90DF90CF90FA
:102AE000BF90AF909F900895CF93DF93CDB7DEB79F
:102AF0002B970FB6F894DEBF0FBECDBF4F8358871C
:102B000069877A878B87DE01119686E0FD01119235
:102B10008A95E9F785E0FE01379601900D928A9536
:102B2000E1F749815A816B817C818D819E810E9470
:102B3000751B2B960FB6F894DEBF0FBECDBFDF918D
:102B4000CF910895CF93882309F499C0C82F8CEFB3
:102B50008C0F813A48F48C2F0E945E2881118FC01F
:102B60008C2F0E944F1E0CC080E28C0F883058F4CE
:102B7000C77081E001C0880FCA95EAF70E948B1EDA
:102B8000CF910C94D21E8BE58C0F833078F4C53A2C
:102B900029F0C63A31F083E890E005C081E890E082
:102BA00002C082E890E0CF910C948A1488E58C0FE3
:102BB000833108F064C0C83A39F1C93A41F1CA3AE0
:102BC00049F1CB3A51F1CC3A59F1CD3A61F1C03BE0
:102BD00069F1CE3A71F1CF3A79F1C13B81F1C23B53
:102BE00089F1C33B91F1C43B99F1C53BA1F1C63BCF
:102BF000A9F1C73BB1F1C83BB9F1C93BC1F1CA3B2F
:102C0000C9F180E090E038C082EE90E035C089EEF6
:102C100090E032C08AEE90E02FC085EB90E02CC0AF
:102C200086EB90E029C087EB90E026C08CEC90E02A
:102C300023C08DEC90E020C083E891E01DC08AE8BD
:102C400091E01AC082E991E017C084E991E014C0D4
:102C500081E292E011C083E292E00EC084E292E051
:102C60000BC085E292E008C086E292E005C087E2F0
:102C700092E002C08AE292E0CF910C94A014CF912E
:102C80000895882329F19CEF980F913A18F40E9437
:102C90006C1E0DC090E2980F983058F4877091E048
:102CA00001C0990F8A95EAF7892F0E94911E0C9412
:102CB000D21E9BE5980F933020F480E090E00C94B6
:102CC0008A14885A833120F480E090E00C94A01498
:102CD0000895882321F00E948B1E0C94D21E089523
:102CE000882321F00E94911E0C94D21E08957F9299
:102CF0008F929F92AF92BF92CF92DF92EF92FF920C
:102D00000F931F93CF93DF931F92CDB7DEB77C0154
:102D1000C62E772EFC01058102950F7012811111CC
:102D20000E94A81E0E94481E882379F0112369F092
:102D300080E28C0D883048F082E00E94311E0E94B3
:102D4000481E91E0D82ED92601C0D12CE72DE2955E
:102D5000EF70F0E0E05AFF4F0C94F52A872D807F4A
:102D6000072D0F70882311F00295007F112389F041
:102D7000002309F498C180E28C0D883020F4802F64
:102D80000E948B1E03C0802F0E949B1E0E94D21E99
:102D90008AC18C2D0E944116002309F49DC180E256
:102DA0008C0D883020F4802F0E94911E03C0802F4C
:102DB0000E94A11E0E94D21E8FC1872D807F972D59
:102DC0009F70803211F4892F03C0892F8295807FF4
:102DD000CC2021F0F1E0CF16A1F01DC0112339F075
:102DE000002319F1013009F50E94BB1E75C10023B3
:102DF00019F0013009F470C189830E94BE1E8981D7
:102E000010C1112321F0063008F066C10EC0053054
:102E100008F062C106C1112359F0002331F0F70117
:102E2000958190FF40C19F7095830E94691654C19F
:102E3000002309F4F6C03DC1872D869586958370E1
:102E400090E0009719F0019761F046C1112321F03D
:102E50008C2D972D937002C080E090E00E948A1420
:102E60003BC1112321F08C2D972D937002C080E07F
:102E700090E00E94A01430C18C2D112319F00E9403
:102E8000782202C00E94E0220E94652325C1872D7E
:102E9000837009F052C011111FC18C2D8295869547
:102EA0008770880F880F9C2D9F70892E912CA12CE4
:102EB000B12C082E04C0880C991CAA1CBB1C0A94B7
:102EC000D2F7C4FE14C00FE010E020E030E0B901FA
:102ED000A80104C0440F551F661F771F8A95D2F7BB
:102EE000CB01BA01609570958095909503C060E024
:102EF00070E0CB01272D26952695237030E02230F7
:102F0000310569F02330310589F0682979298A294A
:102F10009B292130310571F00E94BD1CDDC068295C
:102F200079298A299B290E94D91CD6C00E94BD1CE0
:102F3000C501B4010E94A11CCFC0112319F0872D37
:102F4000817001C08695882309F4C6C08C2D8295B6
:102F500086958770880F880F9C2D9F70892E912CE5
:102F6000A12CB12C082E04C0880C991CAA1CBB1CD7
:102F70000A94D2F7C4FE14C00FE010E020E030E065
:102F8000B901A80104C0440F551F661F771F8A9519
:102F9000D2F7CB01BA01609570958095909503C0EA
:102FA00060E070E0CB01272D269526952370422FF7
:102FB00050E04230510569F04330510589F06829ED
:102FC00079298A299B294130510571F00E94971D6A
:102FD00083C0682979298A299B290E94B31D7CC056
:102FE0000E94971DC501B4010E947B1D75C08C2DE8
:102FF00090E0FC01E05EF109E531F10508F04FC019
:10300000E059FF4F0C94F52A0C2D0F70872D8F710E
:10301000112321F00E94141D802F07CF0E94351D1F
:10302000802F0E94701658C0112341F0053008F01F
:1030300053C0872D8F710E945A1D4EC0063008F074
:103040004BC0F7CF112339F0872D8F710E94141DCB
:1030500043C01123C9F3872D8F710E94351D3CC0D9
:10306000112329F0872D8F710E94FF1C35C00E940B
:10307000F51C32C0112351F0172D1F71812F0E94B2
:10308000141D63E0812F0E94281E26C081E00E944B
:10309000311E023008F182E00E94311E1DC0112352
:1030A00031F0002389F28C2D0E94A21515C0002357
:1030B00091F28C2D0E9441160FC0472D4F706C2D40
:1030C000C7010E94D8080E94191C06C0472D4F70E6
:1030D0006C2DC7010E949709DD20F9F00E94241E83
:1030E00080FD1BC0F70112820E941E1E0E94141D4B
:1030F000C7010E949C180E941E1E0F90DF91CF9165
:103100001F910F91FF90EF90DF90CF90BF90AF9005
:103110009F908F907F900C94351D0F90DF91CF91F1
:103120001F910F91FF90EF90DF90CF90BF90AF90E5
:103130009F908F907F9008950F931F93CF93DF936D
:10314000EC01888199812B813C81232BB9F09F3F31
:1031500011F48F3F99F0CE010E94EF08882371F09F
:10316000688179818A810E941A1E8C010E94CF1D7C
:103170000E94961CB801CE010E947716DF91CF9174
:103180001F910F9108950E94A81E0E94B81E0E94D0
:103190007D1E0E94D21E0E9498240E94652380E01A
:1031A00090E00E948A1480E090E00C94A0140E94A9
:1031B000981E0C94C3180E940F1E292F22952F7061
:1031C00030E02C3031054CF42A3031056CF42250BB
:1031D000310922303105A8F407C02C30310569F0DF
:1031E0002F30310551F00DC0803F69F018F4803E5A
:1031F00040F409C0843F29F406C093FB882780F976
:10320000089580E0089581E00895CF93DF9300D082
:1032100000D01F92CDB7DEB70F900F900F900F9098
:103220000F90DF91CF910895CF93DF9300D000D01E
:1032300000D0CDB7DEB726960FB6F894DEBF0FBE2E
:10324000CDBFDF91CF9108951F93CF93DF93C091AE
:10325000740116E080917501C81799F0D0E01C9FA9
:10326000F0011D9FF00D1124EA58FE4F408151815D
:1032700062817381848195810E9414192196C7709F
:10328000E9CFDF91CF911F9108954091A601509110
:10329000A7016091A8017091A9018091AA01909164
:1032A000AB010C9414198091AB0182958F7009F0D9
:1032B00054C08091A801882309F44FC08091740103
:1032C000A09175016091A6017091A7014091A9019B
:1032D0005091AA01B6E08A1709F43FC090E0411569
:1032E0005105C1F17F3F11F46F3FA1F1B89FF0018B
:1032F000B99FF00D1124EA58FE4F218172132AC0A4
:103300002081621327C02281211124C023813481AE
:103310002417350710F421503109241B350B283CA4
:103320003105C0F42091AB012F7020612093AB01D7
:1033300026E0289FF001299FF00D1124E558FE4F4B
:1033400080818F708061808386EA91E00E949C1862
:103350000C94241901968770BECF0895CF92DF9206
:10336000EF92FF920F931F93CF93DF93CDB7DEB70A
:1033700062970FB6F894DEBF0FBECDBF8C0185E01B
:10338000F801DE011D9601900D928A95E1F7D801B2
:103390004C9111965C91119712966C91129713961D
:1033A000CD90DC9014973091A6017091A701809187
:1033B000A9019091AA01009709F46BC17F3F19F40C
:1033C0003F3F09F466C1E090A801EE2009F4C0C0B7
:1033D0002091AB01C816D90628F0F601E81BF90BBD
:1033E000CF0104C0809590958C0D9D1DFF24F39412
:1033F000883C910578F0F12C207F09F0C6C07C2D27
:10340000D98AC88A89890E94051986EA91E00E94B2
:103410009C18B1C0822F807F09F046C0751314C07C
:10342000341312C0611110C02F7020612093AB01C2
:103430000E94451986EA91E00E949C188091AB0198
:10344000D80115968C932EC0CD2819F15F3F11F449
:103450004F3FF9F0F62E61111CC08091740120914C
:10346000750136E0821709F45AC090E0389FF001E8
:10347000399FF00D1124EA58FE4F7181571306C091
:103480007081471303C07281711103C00196877068
:10349000E9CFF62E662309F418C18091AB01816053
:1034A0008093AB01F12C11C1751308C0341306C011
:1034B000611104C08091AB01D801C3C04D875E8704
:1034C0008D859E856A8B0E94DB186A898823E1F1CD
:1034D0006623D1F12091AB01822F82958F7090E00D
:1034E000029774F08091A6019091A70198878F832D
:1034F0001986DB86CA862C87CE0107960E949C1807
:1035000086E0F801A6EAB1E001900D928A95E1F714
:103510000E9453190E944519FF24F394D6C04D8789
:103520005E878D859E850E940F1E292F22952F7004
:1035300030E0223031050CF0BCC09F7009F0B6C0FD
:10354000805E883008F4C1C0C8010E949C18E4CF96
:10355000C816D90608F453C0F601E81BF90BCF01D1
:10356000883C910508F450C0F12C7C2DD98AC88A7A
:1035700089890E940519E6EAF1E086E0DF011D92E3
:103580008A95E9F70E944519A0C0751314C0341339
:1035900012C0611110C08091AB01F8018583C80190
:1035A0000E949C1886E0E6EAF1E0DF011D928A9510
:1035B000E9F7FE2C8AC04D875E878D859E856A8BD4
:1035C0000E94DB186A89882309F4BECF662309F4B8
:1035D000BBCF2091AB01822F82958F7090E0029734
:1035E0000CF48ECF8091A6019091A7019A838983D4
:1035F0001B82DD82CC822E83CE0101967FCF809507
:1036000090958C0D9D1DACCFF62E662309F49CCFB2
:1036100075132EC034132CC02091AB0120FD1FC0A8
:10362000822F82958F70D9F0D80115962C9315971B
:103630008F3049F08F5F982F9295907F822F8F70F7
:10364000892B15968C93C8010E949C1886E0F8017E
:10365000A6EAB1E001900D928A95E1F793CF86E05A
:10366000F801A6EAB1E001900D928A95E1F72DC02C
:103670004D875E878D859E850E94DB18811140CF26
:103680008091AB0181608093AB01C8010E949C18BE
:103690001CC0662309F458CF4D875E878D859E85B3
:1036A0000E94DB18882309F44FCF2ACF811148CF1D
:1036B0000CC0243031050CF047CF9F7009F440CF87
:1036C000F8019581907F09F03BCF8F2D62960FB660
:1036D000F894DEBF0FBECDBFDF91CF911F910F9148
:1036E000FF90EF90DF90CF9008951F93CF93DF93DB
:1036F000CDB7DEB72C970FB6F894DEBF0FBECDBFA7
:103700004F83588769877A878B879C87CE01079676
:103710000E94AE19882369F08F8198852A853B85A0
:10372000232BF1F19F3F09F063C08F3F09F060C088
:1037300037C086E0FE013796DE01119601900D92AA
:103740008A95E1F76F817885EA85FB85309741F1AD
:103750007F3F11F46F3F21F12091750130E0C901E5
:103760000196877099274091740150E0841795075E
:1037700009F447C069837A83FD83EC8396E0929FC6
:10378000D001939FB00D1124AA58BE4FFE0131966F
:1037900001900D929A95E1F7809375010E9424198A
:1037A00016E080917401909175018917C1F1189FFD
:1037B000C00111248A589E4F0E94AE19882379F1C6
:1037C000E09174011E9FF0011124EA58FE4F4081E0
:1037D000518162817381848195810E941419809145
:1037E000740190E001968770992780937401D9CF76
:1037F0004F81588569857A858B859C850E9414192F
:10380000CFCF0E94D7181092750110927401E6EA8A
:10381000F1E086E0DF011D928A95E9F7C1CF2C9691
:103820000FB6F894DEBF0FBECDBFDF91CF911F91D1
:103830000895EF92FF920F931F93CF93DF938C0124
:10384000009709F46CC0F12CEE24E394E801219672
:10385000F8018491843740F4843008F051C08130FD
:1038600081F0823019F15BC0853709F444C0A8F1BA
:103870009CE7980F903708F052C08F770E9441164E
:1038800041C00E5F1F4FFE01C49180E28C0F883053
:1038900048F4C7708E2D01C0880FCA95EAF70E94C0
:1038A000AB1E14C08C2F0E94A2152DC00E5F1F4F9F
:1038B000FE01C49180E28C0F883058F4C7708E2DC1
:1038C00001C0880FCA95EAF70E94B11E0E94D21E5D
:1038D0001AC08C2F0E94411616C00E5F1F4FFE01AA
:1038E000C491CC2381F08FE99FE00197F1F700C0EC
:1038F0000000C150F6CF0E5F1F4FFE01F49003C0D1
:103900000E94A2158E018F2D882309F49FCFEFE925
:10391000FFE03197F1F700C000008150F5CFDF9153
:10392000CF911F910F91FF90EF90089508956093AC
:10393000B0017093B1018093B2019093B3010C94E4
:10394000C3180F931F930091B0011091B101209102
:10395000B2013091B301DC01CB01802B912BA22B62
:10396000B32B8093B0019093B101A093B201B093B7
:10397000B3011F910F910C94C3180F931F930091E3
:10398000B0011091B1012091B2013091B301DC017D
:10399000CB0180239123A223B3238093B001909382
:1039A000B101A093B201B093B3011F910F910C9498
:1039B000C3180F931F930091B0011091B101209192
:1039C000B2013091B301DC01CB0180279127A227FE
:1039D000B3278093B0019093B101A093B201B0934B
:1039E000B3011F910F910C94C3181092AC01109267
:1039F000AD011092AE011092AF010C94C31841E0DA
:103A000050E060E070E004C0440F551F661F771F50
:103A10008A95D2F74093AC015093AD016093AE010B
:103A20007093AF010C94C31841E050E060E070E087
:103A300004C0440F551F661F771F8A95D2F78091E7
:103A4000AC019091AD01A091AE01B091AF01482BB6
:103A5000592B6A2B7B2B4093AC015093AD016093A3
:103A6000AE017093AF010C94C31841E050E060E0E8
:103A700070E004C0440F551F661F771F8A95D2F768
:103A800040955095609570958091AC019091AD01F5
:103A9000A091AE01B091AF01482359236A237B2343
:103AA0004093AC015093AD016093AE017093AF01B0
:103AB0000C94C31841E050E060E070E004C0440F93
:103AC000551F661F771F8A95D2F78091AC019091A0
:103AD000AD01A091AE01B091AF01482759276A27E7
:103AE0007B274093AC015093AD016093AE0170937E
:103AF000AF010C94C3180F931F930091AC01109168
:103B0000AD012091AE013091AF01DC01CB01802BE2
:103B1000912BA22BB32B8093AC019093AD01A0937A
:103B2000AE01B093AF011F910F910C94C3180F9386
:103B30001F930091AC011091AD012091AE01309125
:103B4000AF01DC01CB0180239123A223B323809317
:103B5000AC019093AD01A093AE01B093AF011F9162
:103B60000F910C94C3180F931F930091AC01109107
:103B7000AD012091AE013091AF01DC01CB01802776
:103B80009127A227B3278093AC019093AD01A09316
:103B9000AE01B093AF011F910F910C94C31808951B
:103BA000CF92DF92EF92FF920F931F93CF93DF9309
:103BB0008C01C090B001D090B101E090B201F090C2
:103BC000B3018091AC019091AD01A091AE01B09193
:103BD000AF01C82AD92AEA2AFB2ACFE1D0E0D701CF
:103BE000C6010C2E04C0B695A795979587950A94A3
:103BF000D2F780FF06C0B8018C2F0E94F40B01970A
:103C000021F4219760F780E001C08C2FDF91CF91E4
:103C10001F910F91FF90EF90DF90CF900895CF9379
:103C2000DF93EC010E94D01DBE010E94F40BDF91D6
:103C3000CF910895CB010E940F1E08958091B40189
:103C400085958595859508958091B401877008952F
:103C500098E0899F90011124262B2093B4010C94A5
:103C6000141D2091B401809582238093B401982F74
:103C7000977069F430E0482F552747FD5095241779
:103C8000350729F08595859585950C94351D089502
:103C90009091B401977081E009F480E0089520913B
:103CA0000B0130910C01F90132969FEF40E05191E8
:103CB000581789F09F3F19F4511101C0942F4F5F9D
:103CC0004630A9F79F3F39F0F901E90FF11D97FD43
:103CD000FA9582830895089520910B0130910C018B
:103CE000F9013296285F3F4F9081981301C01082EE
:103CF0003196E217F307C1F7089581E090E0E09173
:103D00000B01F0910C01E80FF91F10820196883029
:103D10009105A9F708959091C001892B8093C00166
:103D2000089580959091C00189238093C0010895E2
:103D30001092C00108959091BF01892B8093BF011B
:103D4000089580959091BF0189238093BF010895C4
:103D50001092BF0108959091BE01892B8093BE01FE
:103D6000089580959091BE0189238093BE010895A6
:103D70001092BE0108958093B50108951092B50187
:103D8000089580910B0190910C01FC0131969C01EA
:103D9000285F3F4F80E0919191118F5FE217F30709
:103DA000D1F70895E0910B01F0910C018091C001D1
:103DB0008083E0910B01F0910C0190818091BF0113
:103DC000892B8083E0910B01F0910C01908180910F
:103DD000BE01892B80838091B501882361F0E09139
:103DE0000B01F0910C019081892B80830E94C11EF0
:103DF00081111092B50180910B0190910C010C94EE
:103E000036149093330180933201089520E0009797
:103E100039F0AC0141505109842395232F5FF7CF2E
:103E2000822F08958295982F9C7C392F3695369550
:103E3000282F237344E0249FC0011124932F982B33
:103E4000292F2A7A2695892F8575880F822B089528
:103E50008091D601843021F11092C20120E488E1E2
:103E600090E00FB6F894A895809360000FBE209361
:103E7000600080E00E94920C83B7817F846083BFE2
:103E800083B7816083BF7894889583B78E7F83BF23
:103E900088E10FB6F89480936000109260000FBE26
:103EA00008950E94D6080E94B6070E94D7080E9473
:103EB000BE0891E0811101C090E0892F08950E9411
:103EC000D7180E942A140C94920C1F920F920FB6CE
:103ED0000F9211248F939F93AF93BF938091C20150
:103EE000811113C08091C3019091C401A091C501BB
:103EF000B091C6014196A11DB11D8093C30190935D
:103F0000C401A093C501B093C601BF91AF919F9129
:103F10008F910F900FBE0F901F90189582E084BD77
:103F200093E095BD9AEF97BD80936E0008952FB7EB
:103F3000F8948091C3019091C401A091C501B09102
:103F4000C6012FBF08952FB7F8946091C3017091F7
:103F5000C4018091C5019091C6012FBF0895CF92F1
:103F6000DF92EF92FF920F931F932FB7F894409137
:103F7000C3015091C4016091C5017091C6012FBF6A
:103F80006A017B01EE24FF248C0120E030E0C016A2
:103F9000D106E206F30610F4415051099A01281B9C
:103FA000390BC9011F910F91FF90EF90DF90CF90D7
:103FB0000895CF92DF92EF92FF920F931F932FB746
:103FC000F894C090C301D090C401E090C501F09076
:103FD000C6012FBF97018601061B170B280B390B53
:103FE000C616D706E806F90618F0C901B80106C0DA
:103FF000C901B80161507109810991091F910F919F
:10400000FF90EF90DF90CF9008951F920F920FB620
:104010000F9211248F939F93AF93BF938091C3010D
:104020009091C401A091C501B091C6010196A11D56
:10403000B11D8093C3019093C401A093C501B093B7
:10404000C601BF91AF919F918F910F900FBE0F90BE
:104050001F9018950E942811F8942FEF87EA91E697
:10406000215080409040E1F700C0000087E090EBD5
:10407000DC018093E0019093E101A093E201B09311
:10408000E3019CE088E10FB6F894A8958093600066
:104090000FBE90936000FFCFEF92FF920F931F939C
:1040A000CF93DF93D82FC7E08C2F0E94890807E0B9
:1040B00010E0E82EF12CC701002E02C095958795DF
:1040C0000A94E2F780FF09C0602F7C2F80E00E94F5
:1040D0009809D81302C081E006C00150110958F7B1
:1040E000C15010F780E0DF91CF911F910F91FF90A9
:1040F000EF900895CF93C82F8CE20E944C20882324
:1041000021F08C2FCF910C944C2080E0CF9108951A
:10411000CF930E94D021811102C00E94B62183EC6E
:1041200094E00E94F106C5E6C15049F00E94B6072E
:104130008FE39CE90197F1F700C00000F5CF8CEB0D
:1041400094E00E94F10689E20E947A2081110CC15C
:104150008AE20E947A2081110E94B62185E00E94A5
:104160007A2081110E942A200E94DB218093C101C4
:1041700087E00E947A208823A9F18BE10E947A20AF
:10418000882351F08091C10181FB222720F991E021
:10419000922790FB81F90EC08EE00E947A2088233E
:1041A00061F08091C10182FB222720F991E09227E2
:1041B00090FB82F98093C10115C080E10E947A20B2
:1041C0009091C101882341F093FB222720F981E0DF
:1041D000822780FB93F904C0892F809580FB90F99A
:1041E0009093C1018091C1010E94DF210E94ED21C5
:1041F0008093DF0180EE0E947A20882341F0809135
:10420000DF01982F909590FB80F98093DF0189E37F
:104210000E947A20882359F08091DF0181FB2227B8
:1042200020F991E0922790FB81F98093DF0182EEE3
:104230000E947A20882359F08091DF0182FB222797
:1042400020F991E0922790FB82F98093DF0186EEBE
:104250000E947A20882359F08091DF0183FB222776
:1042600020F991E0922790FB83F98093DF0183EEA0
:104270000E947A20882359F08091DF0184FB222755
:1042800020F991E0922790FB84F98093DF0185E388
:104290000E947A20882359F08091DF0185FB222734
:1042A00020F991E0922790FB85F98093DF0181E36B
:1042B0000E947A20882359F08091DF0186FB222713
:1042C00020F991E0922790FB86F98093DF0181E14C
:1042D0000E947A20882359F08091DF0187FB2227F2
:1042E00020F991E0922790FB87F98093DF0180917C
:1042F000DF010E94F12187E20E947A20C82F8EE11F
:104300000E947A208111C2608FE10E947A2081117F
:10431000C46080E20E947A208111C86081E20E941C
:104320007A208111C06182E20E947A208111C062EC
:1043300083E20E947A208111C06484E20E947A2084
:10434000882311F0C06802C0CC2329F08C2F0E9472
:10435000E8216C2F03C00E94E421682F70E080E008
:1043600090E0CF910C94971CCF9108956DEE7EEF65
:1043700080E090E00E942F2B60E082E090E00E94BD
:104380001D2B60E083E090E00E941D2B60E084E044
:1043900090E00E941D2B60E085E090E00C941D2BC6
:1043A00080E090E00E94172B21E08D3E9E4F09F0A7
:1043B00020E0822F089582E090E00C940F2B682F6C
:1043C00082E090E00C941D2B83E090E00C940F2B86
:1043D000682F83E090E00C941D2B84E090E00C9417
:1043E0000F2B682F84E090E00C941D2B8091C90165
:1043F00080FF0BC06091100185E0689FB00111241F
:1044000075956795759567952BC081FF09C060917B
:10441000100185E0689FB00111247595679520C053
:1044200082FF07C06091100185E0689FB0011124F0
:1044300017C09091CA019923D1F060910F0196178E
:1044400088F72091100185E0289F90011124929F08
:10445000A001939F500D112470E0CA010E94E12A2F
:104460006038710540F46115710539F002C065E0EE
:1044700070E0862F08958FE7089581E00895809178
:10448000C90180FF08C060910E0170E075956795C5
:104490007595679521C081FF06C060910E0170E09F
:1044A0007595679519C082FF04C060910E0170E098
:1044B00010C09091CA019923C1F060910D01961727
:1044C000A0F780910E01899FC001112470E00E9425
:1044D000E12A6038710528F46115710521F0862FF5
:1044E00008958FE7089581E0089561E070E0F4CFCA
:1044F000803F21F40E94F621819504C0813F29F478
:104500000E94F6218093CD010895823F21F40E94FC
:10451000F621819504C0833F29F40E94F6218093FF
:10452000CC010895893F19F40E943F2205C08A3FBB
:1045300031F40E943F2281958093CE0108958B3FF4
:1045400021F40E943F22819504C08C3F29F40E94EF
:104550003F228093CF010895843F21F48091CB01C5
:10456000816017C0853F21F48091CB01826011C02A
:10457000863F21F48091CB0184600BC0873F21F4FA
:104580008091CB01886005C0883F31F48091CB01D8
:1045900080618093CB0108958D3F21F48091C90102
:1045A00081600BC08E3F21F48091C901826005C0FB
:1045B0008F3F29F48091C90184608093C9010895D7
:1045C000803F39F48091CD0187FF6CC01092CD01FE
:1045D00069C0813F29F48091CD011816BCF362C0F7
:1045E0009091CC01823F29F497FF5CC01092CC01DE
:1045F00059C0833F19F41916CCF354C0893F41F4D4
:104600008091CE0118160CF04DC01092CE014AC018
:104610008A3F29F48091CE0187FF44C0F6CF8B3FBB
:1046200039F48091CF0187FF3DC01092CF013AC08D
:104630008C3F29F48091CF011816BCF333C0843F1E
:1046400021F48091CB018E7F17C0853F21F48091AA
:10465000CB018D7F11C0863F21F48091CB018B7FF0
:104660000BC0873F21F48091CB01877F05C0883F35
:1046700031F48091CB018F7E8093CB0113C08D3FAD
:1046800021F48091C9018E7F0BC08E3F21F480916F
:10469000C9018D7F05C08F3F29F48091C9018B7FAF
:1046A0008093C9018091CC0181110EC08091CD0110
:1046B00081110AC08091CE01811106C08091CF0185
:1046C000811102C01092CA0108958091C10183FF37
:1046D0007EC08FEF94E00E94F1068091CB011F9283
:1046E0008F938AEF94E09F938F930E948A0788EFBD
:1046F00094E00E94F1068091CC01282F332727FDFA
:1047000030953F938F9385EF94E09F938F930E9412
:104710008A0783EF94E00E94F1068091CD01282F53
:10472000332727FD30953F938F9380EF94E09F933D
:104730008F930E948A078EEE94E00E94F10680918A
:10474000CE01282F332727FD30953F938F938BEE93
:1047500094E09F938F930E948A0789EE94E00E94D1
:10476000F1068091CF01282F332727FD30953F9305
:104770008F9386EE94E09F938F930E948A0783EE37
:1047800094E00E94F1068091CA011F928F9380EEFF
:1047900094E09F938F930E948A078EED94E00E948D
:1047A000F1068091C9011F928F938BED94E09F9346
:1047B0008F930E948A0788ED94E00E94F1068DB7DE
:1047C0009EB74C960FB6F8949EBF0FBE8DBF8BEC74
:1047D00091E00E947F140E94971F9093C8018093DC
:1047E000C70108951F93CF93DF938091C7019091E4
:1047F000C8010E94AF1FAC019091CA01992321F01A
:104800002091110130E006C0209112018AE0289F1A
:10481000900111244217530708F486C08091CC01FF
:10482000C091CD01D091CE011091CF01811107C06F
:10483000C11176C0D11174C0111172C075C09F3FF3
:1048400019F09F5F9093CA01181624F40E94F62174
:104850008093CC018091CC0187FF05C00E94F62196
:1048600081958093CC011C1624F40E94F62180933C
:10487000CD018091CD0187FF05C00E94F621819571
:104880008093CD016091CC01662339F1C091CD01B7
:10489000CC2319F1772767FD7095872F972F0E94FA
:1048A000E62923E333E343E35FE30E944A2A0E94BD
:1048B000B3296093CC016C2F772767FD7095872F04
:1048C000972F0E94E62923E333E343E35FE30E944B
:1048D0004A2A0E94B3296093CD011D1624F40E9438
:1048E0003F228093CE018091CE0187FF05C00E94B8
:1048F0003F2281958093CE01111624F40E943F221D
:104900008093CF018091CF0187FF05C00E943F2295
:1049100081958093CF01DF91CF911F910C946523F6
:104920009F3F09F08ECF96CFDF91CF911F910895D1
:10493000EBECF1E085E0DF011D928A95E9F710923A
:10494000CA011092C901089582E297E00E94F1061F
:104950001F9281E08F931F9285E08F9384ED96E004
:104960009F938F930E948A070F900F900F900F9044
:104970000F900F9008958330E9F128F4813061F0B1
:10498000823009F10895853009F462C008F449C005
:10499000863009F474C0089580911201262F30E00A
:1049A000280F311D2F3F310524F4680F6093120149
:1049B00003C08FEF80931201809112011F928F9399
:1049C0008DE096E072C080911101262F30E0280F13
:1049D000311D2F3F310524F4680F6093110103C08E
:1049E0008FEF80931101809111011F928F938BEFB4
:1049F00095E05BC080911001262F30E0280F311D1B
:104A00002F3F310524F4680F6093100103C08FEF2E
:104A100080931001809110011F928F9388EE95E092
:104A200044C080910F01262F30E0280F311D2F3F09
:104A3000310524F4680F60930F0103C08FEF80935A
:104A40000F0180910F011F928F9383ED95E02DC090
:104A500080910E01262F30E0280F311D2F3F3105A8
:104A600024F4680F60930E0103C08FEF80930E0152
:104A700080910E011F928F938AEB95E016C0809172
:104A80000D01262F30E0280F311D2F3F310524F472
:104A9000680F60930D0103C08FEF80930D0180912B
:104AA0000D011F928F938FE995E09F938F930E9442
:104AB0008A070F900F900F900F900895833081F127
:104AC00028F4813059F08230D1F00895853009F40E
:104AD00049C0B8F1863009F456C00895809112019A
:104AE000681720F4861B8093120102C010921201F5
:104AF000809112011F928F9380E995E054C08091BC
:104B00001101681720F4861B8093110102C01092D6
:104B10001101809111011F928F938EE795E043C0A0
:104B200080911001681720F4861B8093100102C049
:104B300010921001809110011F928F938BE695E0E7
:104B400032C080910F01681720F4861B80930F01FB
:104B500002C010920F0180910F011F928F9386E582
:104B600095E021C080910E01681720F4861B809388
:104B70000E0102C010920E0180910E011F928F93C0
:104B80008DE395E010C080910D01681720F4861B1D
:104B900080930D0102C010920D0180910D011F92B2
:104BA0008F9382E295E09F938F930E948A070F90E4
:104BB0000F900F900F900895CF93C82F1F928F934F
:104BC00087E298E09F938F930E948A0781E090E0AC
:104BD000A0E0B0E0BC01CD0104C0660F771F881FC4
:104BE000991FCA95D2F70E94971C0F900F900F90B3
:104BF0000F90CF910C94D718CF938732B0F58E31A8
:104C000008F04AC28E3009F4C4C100F5873009F4B7
:104C10008DC1A8F4863009F045C28091C101817F21
:104C20008E7F8093C10186E999E00E94F1068FE2B0
:104C30009DE00E94F10681E08093D10175C188302A
:104C400009F43FC08B3009F46BC12CC2863109F4E2
:104C5000E6C120F4803109F4B0C124C2893109F4DD
:104C6000C7C18B3109F481C11DC2883309F458C111
:104C700050F4893209F412C2853309F40FC2873225
:104C800009F40CC20FC2833409F408C228F48A3331
:104C900008F408C2895303C2883409F003C20E9491
:104CA000D71883E19DE00E94F1069FEF23ED80E39A
:104CB000915020408040E1F700C000000E942A206F
:104CC00033C183E39DE00E94F10685E99CE00E94E8
:104CD000F1060E94E4211F928F9382E99CE09F934A
:104CE0008F930E948A0780E99CE00E94F1060E944F
:104CF000DB21C82F8DE79CE00E94F1061F92CF9325
:104D000088E79CE09F938F930E948A0786E79CE048
:104D10000E94F1068CE69CE00E94F1068C2F8170C7
:104D20001F928F9389E69CE09F938F930E948A073E
:104D300087E69CE00E94F1068DE59CE00E94F1066A
:104D4000C1FB882780F91F928F938AE59CE09F938F
:104D50008F930E948A0788E59CE00E94F1068CE40C
:104D60009CE00E94F106C2FB882780F91F928F9376
:104D700089E49CE09F938F930E948A0787E49CE0DC
:104D80000E94F1068EE39CE00E94F106C3FBCC2753
:104D9000C0F91F92CF938BE39CE09F938F930E9467
:104DA0008A0789E39CE00E94F1060E94ED21C82F4A
:104DB00085E29CE00E94F1061F92CF9380E29CE086
:104DC0009F938F930E948A078EE19CE00E94F106D8
:104DD00085E09CE00E94F1068C2F81701F928F93DA
:104DE00082E09CE09F938F930E948A078DB79EB7C5
:104DF00080960FB6F8949EBF0FBE8DBF80E09CE0FA
:104E00000E94F10689EE9BE00E94F106C1FB882713
:104E100080F91F928F9386EE9BE09F938F930E9461
:104E20008A0784EE9BE00E94F10682ED9BE00E94DF
:104E3000F106C2FB882780F91F928F938FEC9BE0CD
:104E40009F938F930E948A078DEC9BE00E94F1064E
:104E50008BEB9BE00E94F106C3FB882780F91F9231
:104E60008F9388EB9BE09F938F930E948A0786EB3A
:104E70009BE00E94F1068CEA9BE00E94F106C4FBD5
:104E8000882780F91F928F9389EA9BE09F938F93E5
:104E90000E948A0787EA9BE00E94F10685E99BE071
:104EA0000E94F106C5FB882780F91F928F9382E943
:104EB0009BE09F938F930E948A0780E99BE00E946A
:104EC000F10684E79BE00E94F106C6FB882780F983
:104ED0001F928F9381E79BE09F938F930E948A0795
:104EE0008FE69BE00E94F10687E69BE00E94F106B8
:104EF000C7FBCC27C0F91F92CF9384E69BE09F931A
:104F00008F930E948A0782E69BE00E94F1068DB78C
:104F10009EB74C960FB6F8949EBF0FBE8DBF04C0CF
:104F20008DEB99E00E94F106C1E0C1C08091C10102
:104F3000C82FC095C170C0FB80F98093C101CC23FC
:104F400049F087E09DE00E94F1068091C1018660F2
:104F5000886048C08AEF9CE00E94F1068091C10100
:104F6000897F877F8093C101DFCF9091C10191FB41
:104F7000CC27C0F981E0C827892FC0FB81F9809335
:104F8000C101CC2319F08DEE9CE027C08FED9CE091
:104F9000C9CF9091C10192FBCC27C0F981E0C8270D
:104FA000892FC0FB82F98093C101CC2319F080EDD9
:104FB0009CE013C080EC9CE0B5CF9091C10193FBC5
:104FC000CC27C0F981E0C827892FC0FB83F98093E3
:104FD000C101CC2351F084EB9CE00E94F10680914A
:104FE000C10181608093C10162C087EA9CE09ACFD1
:104FF00087E899E00E94F1068FE599E00E94F106AA
:1050000089E299E00E94F1068CEF98E00E94F10697
:105010008DEB98E00E94F10682E998E083CF84E866
:1050200098E00E94F1060E942A141F928F938AE64C
:1050300098E09F938F930E948A0780910A011F92A4
:105040008F9383E598E09F938F930E948A078091C6
:1050500064011F928F9380E498E09F938F930E9446
:105060008A078091C3019091C401A091C501B091BC
:10507000C601BF93AF939F938F938CE298E09F9369
:105080008F930E948A078DB79EB742960FB6F89409
:105090009EBF0FBE8DBF48CF8D5101C080E00E94E2
:1050A000DC2542CF85EA9CE00E94F106C0E08C2F0F
:1050B000CF91089580E0089580E00895CF93C82FA0
:1050C0008091D101813071F020F0823009F44BC021
:1050D00042C1E0910B01F0910C018081823209F014
:1050E0003CC107C0E0910B01F0910C01808182323C
:1050F00061F48C2F0E945A28811104C08C2F0E94C9
:10510000FC252FC081E090E02CC08C2F0E945C28F1
:10511000811126C0C431E1F070F4CB3081F0C03190
:10512000D1F40E94A4248FE198E00E94F10682E06D
:105130008093D10115C0C93259F0C83361F486E9B2
:1051400099E00E94F10683E298E00E94F10608C00F
:105150001092D10104C18DE198E00E94F106FFC0D8
:1051600081E08170FEC0C43228F5CE3108F0C1C0A4
:10517000CB30A1F1D0F4C73009F0D3C08EE18093D9
:10518000120182E3809311018AE08093100184E18F
:1051900080930F0188E080930E0188E280930D01D7
:1051A00083EC96E00E94F106BFC0C33149F1C431DF
:1051B000C1F0B7C0CB3409F4A9C028F4C93289F0D2
:1051C000C83361F0AEC0C13509F49EC0C23509F4E0
:1051D00099C0CE3409F0A5C06AE09EC00E94A42404
:1051E000A3C08091D001882319F01092D0019CC0F7
:1051F00080ED96E00E94F10681E08093D101B1C07C
:105200008AEA96E00E94F10688E996E00E94F1069B
:10521000809112011F928F9385E996E09F938F935F
:105220000E948A0783E996E00E94F10681E896E0F1
:105230000E94F106809111011F928F938EE796E0F4
:105240009F938F930E948A078CE796E00E94F10655
:105250008DE696E00E94F106809110011F928F93D7
:105260008AE696E09F938F930E948A0788E696E0ED
:105270000E94F10687E596E00E94F10680910F01F9
:105280001F928F9384E596E09F938F930E948A07E5
:1052900082E596E00E94F1068DE396E00E94F10619
:1052A00080910E011F928F938AE396E09F938F93D4
:1052B0000E948A0788E396E00E94F10681E296E068
:1052C0000E94F10680910D011F928F938EE196E06E
:1052D0009F938F930E948A078CE196E00E94F106CB
:1052E0008DB79EB748960FB6F8949EBF0FBE8DBF80
:1052F0001BC0CE51EC2FF0E0E95DFE4F8081809322
:10530000D00112C061E003C061E006C06AE0809194
:10531000D0010E94BB2408C08091D0010E945E256C
:1053200003C081EC96E013C08091D001882369F01E
:105330001F928F938BEB96E09F938F930E948A0727
:105340000F900F900F900F9004C088EB96E00E9492
:10535000F10681E006C01092D10180E002C080E039
:1053600000CFCF91089504D06894B1118DC00895F5
:1053700070D088F09F5790F0B92F9927B751A0F0BF
:10538000D1F0660F771F881F991F1AF0BA95C9F7D9
:1053900012C0B13081F077D0B1E0089574C0672FAA
:1053A000782F8827B85F39F0B93FCCF38695779589
:1053B0006795B395D9F73EF4909580957095619572
:1053C0007F4F8F4F9F4F0895E89409C097FB3EF49D
:1053D00090958095709561957F4F8F4F9F4F992342
:1053E000A9F0F92F96E9BB279395F69587957795C0
:1053F0006795B795F111F8CFFAF4BB0F11F460FF80
:105400001BC06F5F7F4F8F4F9F4F16C0882311F0D7
:1054100096E911C0772321F09EE8872F762F05C0EB
:10542000662371F096E8862F70E060E02AF09A9586
:10543000660F771F881FDAF7880F9695879597F97B
:10544000089557FD9058440F551F59F05F3F71F074
:105450004795880F97FB991F61F09F3F79F08795DB
:105460000895121613061406551FF2CF4695F1DF64
:1054700008C0161617061806991FF1CF86957105F4
:10548000610508940895E894BB2766277727CB0128
:1054900097F908950BD078C069D028F06ED018F035
:1054A000952309F05AC05FC01124EECFCADFA0F3E4
:1054B000959FD1F3950F50E0551F629FF001729FA9
:1054C000BB27F00DB11D639FAA27F00DB11DAA1FC8
:1054D000649F6627B00DA11D661F829F2227B00D15
:1054E000A11D621F739FB00DA11D621F839FA00DA0
:1054F000611D221F749F3327A00D611D231F849FF0
:10550000600D211D822F762F6A2F11249F57504046
:105510008AF0E1F088234AF0EE0FFF1FBB1F661FE1
:10552000771F881F91505040A9F79E3F510570F09A
:1055300014C0AACF5F3FECF3983EDCF386957795D5
:105540006795B795F795E7959F5FC1F7FE2B880F95
:10555000911D9695879597F9089597F99F6780E82B
:1055600070E060E008959FEF80EC089500240A94B5
:105570001616170618060906089500240A9412162E
:105580001306140605060895092E0394000C11F461
:10559000882352F0BB0F40F4BF2B11F460FF04C00E
:1055A0006F5F7F4F8F4F9F4F0895991B79E004C025
:1055B000991F961708F0961B881F7A95C9F7809552
:1055C000089597FB072E16F4009407D077FD09D0B5
:1055D0000E94FB2A07FC05D03EF4909581959F4FD1
:1055E0000895709561957F4F0895EE0FFF1F059008
:1055F000F491E02D0994AA1BBB1B51E107C0AA1F1F
:10560000BB1FA617B70710F0A61BB70B881F991F63
:105610005A95A9F780959095BC01CD010895F99907
:10562000FECF92BD81BDF89A992780B50895A8E173
:10563000B0E042E050E00C94372B262FF999FECFD2
:1056400092BD81BDF89A019700B4021639F01FBAD5
:1056500020BD0FB6F894FA9AF99A0FBE08950196F4
:10566000272F0E941E2B0C941D2BDC01CB01FC016B
:10567000F999FECF06C0F2BDE1BDF89A319600B4AB
:0E5680000D9241505040B8F70895F894FFCFB6
:10568E00940C850D620D2E0DFA0C01B6012808142E
:10569E000A321E404D36204904FC03C603A60332CF
:1056AE00034B0364037D0301020304050607080987
:0256BE000000EA
:00000001FF
