:100000000C9497060C94DB060C94DB060C94DB0630
:100010000C94DB060C94DB060C94DB060C94DB06DC
:100020000C94DB060C94DB060C94DB060C94691133
:100030000C9417120C947C1F0C94DB060C94DB06BA
:100040000C94DB060C94DB060C94DB060C94E41F8A
:100050000C94DB060C94DB060C94DB060C94DB069C
:100060000C94DB060C94DB060C94DB060C94DB068C
:100070000C94DB068412A6129413A6129413EB12AE
:100080000E13941363137613A016A016CF16CF1673
:100090000E172E175E185E1839175E18E917E91744
:1000A0004F185E185E185818F617F617F617F61759
:1000B000F617F617F617F617F617F617F617F617D8
:1000C000F617F617F617F617061814181B18221845
:1000D0002C18022B0001E2012B00F1A1028C00C0C0
:1000E000018C048C2BA12A222921E6001000360065
:1000F0000E000F00120027002D00C100370038004D
:100100003300340013002F002E00C000E500C000B3
:1001100028002A003000310035003900C600C70031
:100120000400C500140029001E00E20064001D0048
:1001300016001A0008001F002000E3001B00070043
:10014000090015001700210022002C0006001900EC
:100150000A001C00180023002400E700050011001D
:100160000B000D000C00250026000100100001000E
:1001700052004F00120043004400C3000100010080
:100180000100010013000100450001000100010011
:1001900001004C0001000100C40001000100010049
:1001A00004000100140001003A00010001001D00DC
:1001B00016001A0008003B003C0001001B0007006D
:1001C0000900150017003D003E000100060019005F
:1001D0000A001C0018003F0040000100050011004B
:1001E000500051000C004100420001001000360098
:1001F0000C0012000F0027002D000100370038000E
:100200000B00340033002F002E00C000E500C100B9
:1002100028002A00300031003500010001000100F3
:1002200004000100140001001E00010001001D0077
:1002300016001A0007001F00200001001B00080024
:10024000170009000E00210022000100060019001D
:100250000A000D001800230024000100050013000F
:100260001C0011001500250026000A444542554790
:100270003A20656E61626C65642E0A005374617485
:1002800065206F6620726F772025583A202530311F
:1002900036620A0048756D616E2D72656164616237
:1002A0006C65206D61747269782073746174653A4D
:1002B0000D0A004465626F756E63696E6720646540
:1002C0006C61792072656D61696E696E673A20258F
:1002D000580A005B735D004B6579626F6172642040
:1002E00073746172742E0A005B525D005B445D00A2
:1002F0005B435D000E0341006C007000730036002C
:1003000034000000080354004D004B0000000403BB
:10031000090409027400040100A0FA0904000001A4
:10032000030101000921110100012240000705819C
:100330000308000A09040100010301020009211158
:10034000010001224D000705820308000A0904028A
:1003500000010300000009211101000122360007FD
:1003600005830308000A09040300020300000009D2
:10037000211101000122200007058403200001074C
:100380000504032000011201100100000008EDFE29
:1003900064640100010200010631FF0974A1010932
:1003A00075150025FF952075088102097615002531
:1003B000FF952075089102C005010980A101850201
:1003C00016010026B7001A01002AB7007510950122
:1003D0008100C0050C0901A1018503160100269CBE
:1003E000021A01002A9C02751095018100C00501C6
:1003F0000902A1010901A10005091901290515003A
:10040000250195057501810295017503810105019D
:10041000093009311581257F950275088106093853
:100420001581257F950175088106050C0A3802158E
:1004300081257F950175088106C0C005010906A1C7
:1004400001050719E029E7150025019508750181C7
:1004500002950175088101050819012905950575A1
:100460000191029501750391010507190029FF15F6
:100470000026FF00950675088100C00A002530326D
:100480005820006B6579626F6172645F7265706F8E
:1004900072743A20004B6579626F617264204C453A
:1004A00044732073746174653A2025780A00646F80
:1004B0006E652E0A00626F6F676D616769632073F6
:1004C00063616E3A202E2E2E2000290A0025750029
:1004D0002F002575005D280025640020002564009C
:1004E000200025640020002564007C00253032585F
:1004F000006D6F7573656B6579205B62746E7C78D7
:100500002079207620685D287265702F61636C29E0
:100510003A205B006D6B5F776865656C5F74696D31
:10052000655F746F5F6D6178203D2025640A006D02
:100530006B5F776865656C5F6D61785F737065652B
:1005400064203D2025640A006D6B5F74696D655FF2
:10055000746F5F6D6178203D2025640A006D6B5FCC
:100560006D61785F7370656564203D2025640A00C5
:100570006D6B5F696E74657276616C203D202564D9
:100580000A006D6B5F64656C6179203D2025640A0B
:10059000006D6B5F776865656C5F74696D655F742E
:1005A0006F5F6D6178203D2025640A006D6B5F7779
:1005B0006865656C5F6D61785F7370656564203D2B
:1005C0002025640A006D6B5F74696D655F746F5FF1
:1005D0006D6178203D2025640A006D6B5F6D617848
:1005E0005F7370656564203D2025640A006D6B5F54
:1005F000696E74657276616C203D2025640A006D19
:100600006B5F64656C6179203D2025640A000A00F7
:10061000257500363A20776865656C5F74696D658D
:100620005F746F5F6D61783A20000A0025750035B0
:100630003A20776865656C5F6D61785F737065659A
:10064000643A20000A00257500343A2074696D650B
:100650005F746F5F6D61783A20000A002575003382
:100660003A206D61785F73706565643A20000A0016
:10067000257500323A20696E74657276616C286D5A
:1006800073293A20000A00257500313A2064656C10
:100690006179282A31306D73293A20000A092D200A
:1006A00056616C756573202D0A004D3E004D256422
:1006B0003E20003F007365742064656661756C744C
:1006C0000A00433E200077686572652064656C749B
:1006D000613A20637572736F723D25642C207768D0
:1006E00065656C3D25640A53656520687474703ACD
:1006F0002F2F656E2E77696B6970656469612E6F47
:1007000072672F77696B692F4D6F7573655F6B65C6
:1007100079730A000A092D204D6F7573656B657931
:10072000202D0A4553432F713A09717569740A31B6
:100730003A0964656C6179282A31306D73290A326F
:100740003A09696E74657276616C286D73290A3393
:100750003A096D61785F73706565640A343A0974AB
:10076000696D655F746F5F6D61780A353A09776806
:1007700065656C5F6D61785F73706565640A363AB4
:1007800009776865656C5F74696D655F746F5F6D2F
:1007900061780A0A703A097072696E742076616C29
:1007A0007565730A643A09736574206465666175DA
:1007B0006C74730A75703A092B310A646F776E3A5C
:1007C000092D310A706775703A092B31300A70674C
:1007D000646F776E3A092D31300A0A73706565646B
:1007E000203D2064656C7461202A206D61785F7300
:1007F00070656564202A2028726570656174202FF9
:100800002074696D655F746F5F6D6178290A003FC0
:10081000004D3E2000433E20004C25640A007469D0
:100820006D65725F636F756E743A202530346C5855
:100830000A006B6579626F6172645F69646C653A26
:100840002025580A006B6579626F6172645F70726F
:100850006F746F636F6C3A2025580A00686F737469
:100860005F6B6579626F6172645F6C656473282980
:100870003A2025580A000A092D20537461747573B3
:10088000202D0A004743433A20342E392E3220418E
:1008900056522D4C4942433A20312E382E312041B8
:1008A00056525F415243483A2061767233350A000E
:1008B0004F5054494F4E533A204C55464120424FD9
:1008C0004F544D41474943204D4F5553454B455992
:1008D0002045585452414B455920434F4E534F4C9D
:1008E0004520434F4D4D414E4420343039360A00A7
:1008F0004255494C443A20373161663663352D64A0
:1009000069727479202830303A32343A3238204AC9
:10091000756C2031312032303136290A0056494475
:100920003A2030784645454428544D4B29205049BB
:10093000443A2030783634363428416C707336347B
:1009400029205645523A203078303030310A004460
:100950004553433A20544D4B206B6579626F617269
:1009600064206669726D7761726520666F722041DE
:100970006C707336340A000A092D2056657273694B
:100980006F6E202D0A000A092D20436F6E736F6C65
:1009900065202D0A4553432F713A09717569740A10
:1009A0006D3A096D6F7573656B65790A000A092DDB
:1009B000204D61676963202D0A443A0944656275D8
:1009C00067204D65737361676520546F67676C6559
:1009D0000A583A094D6174726978204465627567F6
:1009E000204D6F646520546F67676C65202D205320
:1009F000686F77206B6579707265737365732069B2
:100A00006E206D617472697820677269640A4B3A6E
:100A1000094B6579626F6172642044656275672075
:100A2000546F67676C65202D2053686F77206B6566
:100A3000797072657373207265706F72740A4D3AC3
:100A4000094465627567204D6F75736520546F6743
:100A5000676C650A563A0956657273696F6E0A5378
:100A60003A095374617475730A433A0941637469AE
:100A70007661746520436F6E736F6C65204D6F6493
:100A8000650A46312D4631303A09537769746368F7
:100A900020746F204C6179657220302D39202846F2
:100AA0003130203D204C30290A302D393A09537716
:100AB0006974636820746F204C6179657220302DF1
:100AC000390A4553433A0953776974636820746F50
:100AD000204C6179657220302028616C7465726EDB
:100AE000617465206B65792031290A47524156456A
:100AF0003A0953776974636820746F204C61796593
:100B00007220302028616C7465726E617465206B90
:100B100065792032290A50415553453A094A756D85
:100B20007020746F20426F6F746C6F616465722007
:100B3000285265736574290A453A095072696E74C2
:100B400020454550524F4D2053657474696E67734C
:100B50000A000A002575002E6E6B726F3A20000A9B
:100B6000002575002E737761705F6261636B736C33
:100B70006173685F6261636B73706163653A2000E3
:100B80000A002575002E737761705F677261766564
:100B90005F6573633A20000A002575002E6E6F5F53
:100BA0006775693A20000A002575002E7377617019
:100BB0005F72616C745F726775693A20000A002584
:100BC00075002E737761705F6C616C745F6C677514
:100BD000693A20000A002575002E636170736C6FFE
:100BE000636B5F746F5F636F6E74726F6C3A20003B
:100BF0000A002575002E737761705F636F6E7472E3
:100C00006F6C5F636170736C6F636B3A20000A00F6
:100C100025303258006B65796D61705F636F6E6669
:100C200069672E7261773A20000A002575002E6DE3
:100C30006F7573653A20000A002575002E6B657983
:100C4000626F6172643A20000A002575002E6D61A2
:100C5000747269783A20000A002575002E656E616D
:100C6000626C653A20000A002530325800646562E3
:100C700075675F636F6E6669672E7261773A2000F1
:100C80000A0025750064656661756C745F6C617936
:100C900065723A20003F000A6D6F7573653A206FE8
:100CA00066660A000A6D6F7573653A206F6E0A00FA
:100CB0000A6B6579626F6172643A206F66660A003A
:100CC0000A6B6579626F6172643A206F6E0A000A7E
:100CD0006D61747269783A206F66660A000A6D6108
:100CE000747269783A206F6E0A000A6465627567EB
:100CF0003A206F66660A000A64656275673A206F7B
:100D00006E0A000A0A4A756D70696E6720746F205A
:100D1000626F6F746C6F616465722E2E2E200043BB
:100D20003E20006565636F6E6669673A0A001124AC
:100D30001FBECFEFD4E0DEBFCDBF04B603FE24C09C
:100D40008091E8019091E901A091EA01B091EB0155
:100D50008730904BA740B04BB9F41092E801109245
:100D6000E9011092EA011092EB0114BE84B7877F6B
:100D700084BF88E10FB6F894809360001092600001
:100D80000FBEE0E0F8E3099511E0A0E0B1E0EAE889
:100D9000F6E502C005900D92A234B107D9F711E033
:100DA000A2E4B1E001C01D92A83EB107E1F70E94A4
:100DB000C50E0C94432B0C940000FF93EF93E0912D
:100DC0004201F0914301309709F00995EF91FF91AD
:100DD0000895FC018591803011F0EFDFFBCF08957D
:100DE000FF27E0E230E247FF0CC0419597FF09C0C2
:100DF000EDE26095709580959095611D711D811D46
:100E0000911D27FF02C0219530E350E2AA27660F0B
:100E1000771F881F991FAA1FA41710F0A41B6395A2
:100E20005A95A9F7AA3008F0A95FA05DAF93F39592
:100E3000611571058105910541F7ED3211F4EF93CC
:100E4000F395F21718F43F93F395FBCF8F91B5DF2D
:100E5000FA95E1F70895E991F9918591803021F0B3
:100E6000853219F0AADFF9CF089520E0E894559172
:100E70005532C1F3503311F4689455915A3348F404
:100E8000505390F3220F022E220F220F200D250F18
:100E9000F4CF0EF4219589919991533619F3533774
:100EA00029F1533559F1BC0188279927E8945C361C
:100EB00021F48991999168945591543639F446EF0B
:100EC0007EF077FF0DC08FEF9FEF0AC055374AE0E5
:100ED00039F0583540E121F0523642E009F00895EA
:100EE000FF93EF937DDFEF91FF91B7CFFF93EF93E8
:100EF000FC0181918030B9F360DFFBCFFF93EF936A
:100F000068DFF1CFDF93CF93CDB7DEB72596A3DFB0
:100F1000CF91DF91089581FF03C03D9A459A0895CE
:100F20003D9845980895089508953D9A459A2FEF64
:100F300089E698E1215080409040E1F700C0000030
:100F40003D9845980C9493070C949407611107C041
:100F5000FC018281811106C082ED90E0089580E05D
:100F600090E0089585ED90E0089581E0089581E096
:100F700008950C94B70708950F931F93CF93DF93B1
:100F80008C01FC01C081D181CE010E94D51DBE0122
:100F90000E946908EC01B8010E94B907882309F48E
:100FA0008DC0F8018281882309F44AC080914F01E5
:100FB00081111FC0C431F0E5DF0709F051C00E9464
:100FC000BB0781E080934F010E94AE1F90934E01BA
:100FD00080934D01109246011092480110924701F2
:100FE00010924A011092490110924C0110924B014B
:100FF00065C080914D0190914E010E94BA1F883CBE
:10100000910570F480914601E82FF0E0EE0FFF1F8C
:10101000E95BFE4FD183C0838F5F809346014EC052
:10102000C43880E5D80721F0C538D04501F13AC071
:10103000F8018281882341F01092440182E01EC0B1
:10104000C438E0E5DE0759F580914401811106C0FE
:1010500086E20E94441586E20E940C1682E01CC0C3
:10106000C438F0E5DF0741F3C538D045D9F4F801BD
:101070008281882331F01092450180E20E945B1644
:101080001DC080914501811106C087E20E94441570
:1010900087E20E940C1680E20E9462160FC0C538DB
:1010A000D04529F381E08093440180934501C80134
:1010B000DF91CF911F910F910C94B50780E0DF91E4
:1010C000CF911F910F9108950C9495070C94A4074C
:1010D0000895E82FF0E083E0EE0FFF1F8A95E1F717
:1010E000E70FF11D93E0EE0FFF1F9A95E1F7E60F72
:1010F000F11DEE0FFF1FE651FF4F8591949108956A
:10110000880F991FFC01E65AF0408591949108954B
:10111000880F991FFC01E652FF4F85919491089525
:101120000F931F93CF93DF93EC01811520E3920778
:1011300050F5C11580E2D80708F0C3C0CB3BD105FC
:1011400090F4C83AD10508F06AC0C53AD10508F054
:101150005BC0C430D10508F0D4C1219709F0CEC1DD
:1011600001E010E00EC2CF3FD10511F008F0C9C177
:10117000C03FD10508F0A2C0CE01805E910908975A
:1011800008F4BFC1BBC1C13090E5D90709F4A2C0C2
:1011900020F5C0318FE4D80770F4C11590E4D90769
:1011A00008F094C0C11521E3D20708F0A7C1DD27DC
:1011B0008E01106CE6C1C115D04509F09FC10E9497
:1011C000C9188FEF94E32CE0815090402040E1F764
:1011D00000C000000E940920D4C1C11597E5D907BD
:1011E00058F4C03121E5D20708F020C1C43180E5B0
:1011F000D80708F479C082C1CE019057811590417B
:1012000008F07CC1DF7077C1C53AD10509F47BC114
:10121000C63AD10509F07AC102E810E4B2C1C83A71
:10122000D10509F476C1C93AD10509F475C1CA3AA4
:10123000D10509F474C1CB3AD10509F473C1CC3A94
:10124000D10509F472C1CD3AD10509F471C1C03B91
:10125000D10509F470C1CE3AD10509F46FC1CF3A76
:10126000D10509F46EC1C13BD10509F46DC1C23B82
:10127000D10509F46CC1C33BD10509F46BC1C43B72
:10128000D10509F46AC1C53BD10509F469C1C63B62
:10129000D10509F468C1C73BD10509F467C1C83B52
:1012A000D10509F466C1C93BD10509F465C1CA3B42
:1012B000D10509F464C100E014E463C18E01106536
:1012C00060C1CE019F700E9488085CC1DF708E01F2
:1012D000106A57C18AE692E00E94E9068091C9012E
:1012E00081608093C9014DC10E94AF21811102C06C
:1012F0000E9495210E94CC2190E09093E801809378
:10130000E701C23080E5D80721F48091E7018160D0
:1013100086C0C43090E5D90721F48091E70182604E
:101320007EC0C63020E5D20721F48091E7018460B9
:1013300076C0C83080E5D80719F48091E70127C04E
:10134000CA3090E5D90721F48091E701806167C038
:10135000CC3020E5D20721F48091E70180625FC0A4
:10136000CE3080E5D80721F48091E701806457C032
:10137000C03190E5D90721F48091E70180684FC022
:10138000C23120E5D20729F48091E70184608860AA
:1013900046C0C33080E5D80721F48091E7018E7FF5
:1013A0003EC0C53090E5D90721F48091E7018D7FDB
:1013B00036C0C73020E5D20721F48091E7018B7F4A
:1013C0002EC0C93080E5D80719F48091E70126C006
:1013D000CB3090E5D90721F48091E7018F7E1FC0C3
:1013E000CD3020E5D20721F48091E7018F7D17C031
:1013F000CF3080E5D80721F48091E7018F7B0FC0C3
:10140000C13190E5D90721F48091E7018F7707C0BA
:10141000C331D04531F48091E7018B7F877F809382
:10142000E7018091E7010E94D021ABC08D2F992761
:101430008F70992781309105D9F49E01237033274D
:1014400002C0880F991F2A95E2F79C688E0144E03C
:10145000000F111F4A95E1F700271370802B912B85
:1014600053E0CC0FDD1F5A95E1F7C076DD272FC082
:101470008230910531F4DC2FCC278E01016F106A88
:1014800080C08330910569F4CE018370992701E013
:1014900010E002C0000F111F8A95E2F7C8019C6896
:1014A0000FC084309105B9F4CE018370992701E013
:1014B00010E002C0000F111F8A95E2F7C8019A6878
:1014C00023E0CC0FDD1F2A95E1F7C07ED7708C0199
:1014D0000C2B1D2B56C08530910531F4DC2FCC2709
:1014E0008E01046F106A4DC0069709F04AC0CF7193
:1014F000DD27DC2FCC278E01106243C000E010E016
:1015000040C08E013EC001E810E43BC003E810E497
:1015100038C002EE14E435C009EE14E432C00AEE1D
:1015200014E42FC005EB14E42CC006EB14E429C02E
:1015300007EB14E426C00CEC14E423C00DEC14E417
:1015400020C003E815E41DC00AE815E41AC002E94A
:1015500015E417C004E915E414C001E216E411C053
:1015600003E216E40EC004E216E40BC005E216E442
:1015700008C006E216E405C007E216E402C00AE26B
:1015800016E4C801DF91CF911F910F910895E82FC4
:10159000F0E083E0EE0FFF1F8A95E1F7E70FF11D02
:1015A00093E0EE0FFF1F9A95E1F7E60FF11DEE0FA6
:1015B000FF1FE651FF4F85919491803E9105E0F425
:1015C000803C910558F58133910509F46FC048F4CA
:1015D0008932910509F463C08A32910509F46DC01E
:1015E00072C089339105E9F082389105D1F08533D5
:1015F000910509F44DC067C0833E910581F138F42F
:10160000803E9105B9F0823E9105D9F05CC0863EDE
:10161000910561F1873E9105A1F155C00E948008B6
:1016200008952091E70120FD02C021FF4CC080EE0B
:1016300090E049C08091E70180FFF9CF89E390E015
:1016400042C08091E70182FF0EC08091E70184FFD4
:1016500003C080E090E037C083EE90E034C080911A
:10166000E70182FFF2CF82EE90E02DC08091E7018A
:1016700083FF0BC08091E70184FDEBCF87EE90E004
:1016800022C08091E70183FFF5CF86EE90E01BC07A
:101690008091E70185FF07C089E290E014C0809146
:1016A000E70185FFF9CF85E390E00DC08091E70168
:1016B00086FF07C08AE290E006C08091E70186FFBE
:1016C000F9CF81E390E00E9490080895E82FF0E0C0
:1016D000E45EFE4F8081E82FEF70F0E082958F701E
:1016E00021E030E0A90102C0440F551F8A95E2F7BE
:1016F00040A308950F931F93CF93DF93C7E0D0E0EB
:1017000001E010E0FE01E45EFE4F8081E82FEF7003
:10171000F0E021A182958F70A80102C0440F551FEF
:101720008A95E2F7CA01822B81A38C2F0E94660B57
:10173000219740F787E090E061E070E0FC01EC5E0B
:10174000FE4F2081E22FEF70F0E042A122952F7032
:10175000DB0102C0AA0FBB1F2A95E2F79D01242BD3
:1017600022A3019758F7DF91CF911F910F910C940D
:101770006408EF92FF920F931F93CF93DF9308E5D6
:1017800011E0C7E0EE24E394F12CD5E08C2F0E9409
:10179000660B87E090E040E0FC01EC5EFE4F50817C
:1017A000E52FEF70F0E020A130E052955F7002C0AD
:1017B000359527955A95E2F720FD07C09701082E29
:1017C00001C0220F0A94EAF7422B019728F7F8018B
:1017D00082918F01841719F04083D09300018C2FE0
:1017E0000E94660BC15090F68091000187FD32C0C7
:1017F0009091C90190FF10C0282F332727FD309505
:101800003F938F9383EB92E09F938F930E94820785
:101810000F900F900F900F90809100018150809356
:10182000000187FD07C08FE99FE00197F1F700C035
:10183000000010C080E090E0FC01E85AFE4FDC019F
:10184000A05BBE4F17962C9127830197883FEFEF3F
:101850009E0791F70E94660881E0DF91CF911F916A
:101860000F91FF90EF900895E82FF0E0E85AFE4FB7
:10187000808108950F931F93CF93DF938091C901C7
:1018800080FF04C084E992E00E94E906C0E0D0E055
:101890000CE712E08091C90180FF15C0FE01E85AF3
:1018A000FE4F808190E00E94291F9F938F93DF93CA
:1018B000CF931F930F930E9482070F900F900F906A
:1018C0000F900F900F902196C830D10519F7DF9136
:1018D000CF911F910F9108950F931F93CF9300E61F
:1018E00011E0C0E0F80182918F0190E00E940B1F8F
:1018F000C80FF1E008351F07A9F78C2FCF911F9172
:101900000F91089580916B0108959FB7F8941092FC
:1019100062019FBF9091DE01943009F057C0909111
:10192000E9009F703091EC00232F217030FD20E8FA
:10193000922B24E02093E9002091EB0020FF43C08C
:101940002091EE0027FF3FC020916001222321F06B
:101950002091E80025FF37C01092600126E0309109
:10196000E80035FD15C03091DE01343061F530916D
:10197000EB0035FD28C0215021F481E08093600107
:1019800022C0EFE9FFE03197F1F700C00000E7CF98
:101990008093F1008091E80085FD0AC08091E80005
:1019A00080FFFCCF8091E8008E778093E80006C02E
:1019B0008FB7F89421E0209362018FBF9F709093BE
:1019C000E90080E008959F709093E9008FEF0895FB
:1019D000CF93DF9300D01F92CDB7DEB79C018091EB
:1019E000DE01843019F593E099833B832A83909339
:1019F000E9008FEF9091E800815095FD06C095EDCC
:101A00009A95F1F700008111F5CF8091E80085FFEC
:101A10000DC040E050E063E070E0CE0101960E940E
:101A2000770F8091E8008E778093E8000F900F90F9
:101A30000F90DF91CF910895CF93DF9300D01F9245
:101A4000CDB7DEB72091DE01243021F522E02983D5
:101A50009B838A8383E08093E9008FEF9091E80075
:101A6000815095FD06C095ED9A95F1F70000811122
:101A7000F5CF8091E80085FF0DC040E050E063E0C5
:101A800070E0CE0101960E94770F8091E8008E777A
:101A90008093E8000F900F900F90DF91CF91089501
:101AA0002091DE012430F1F422E02093E9002FEFB1
:101AB0003091E800215035FD06C035ED3A95F1F73B
:101AC00000002111F5CF2091E80025FF0BC040E078
:101AD00050E065E070E00E94770F8091E8008E771B
:101AE0008093E8000895CF93DF932091DE012430A6
:101AF00039F521E02093E9002FEF3091E8002150E3
:101B000035FD06C035ED3A95F1F700002111F5CF0E
:101B10002091E80025FF14C0EC0140E050E068E0AF
:101B200070E00E94770F8091E8008E778093E80044
:101B300088E0FE01A3E6B1E001900D928A95E1F7FD
:101B4000DF91CF91089580EF92E00E94E9068091A5
:101B5000DD01811109C00E9406110E945911809176
:101B6000E20084608093E20008958CEE92E00E948F
:101B7000E9061092DD01089588EE92E00C94E906E2
:101B8000209161012F5F822F62E30E94D32A992363
:101B900019F0209361010895109261018091620112
:101BA000882371F18091DE01843041F58091E90054
:101BB0008F702091EC00922F917020FD90E8892B7E
:101BC00094E09093E9009091EB0090FF14C0909105
:101BD000EE0097FF10C09091E80095FF03C01092AF
:101BE000F100F9CF9091E80090FF05C09091E800D6
:101BF0009E779093E8008F708093E90010926201C5
:101C0000089542E061EC81E00E94801042E061ECC6
:101C100082E00E94801042E061EC83E00E9480102C
:101C200042E261EC84E00C9480108091E00183300A
:101C300009F453C030F4813071F0823009F48CC063
:101C400008958A3009F478C08B3009F45EC0893079
:101C500009F09AC020C08091DF01813A09F094C058
:101C60008091E800877F8093E8008091E301909164
:101C7000E401892B21F468E083E691E003C060E091
:101C800080E090E070E00E94C20F8091E8008B77C6
:101C90008093E80008958091DF01813209F074C0DB
:101CA0008091E3019091E401892B09F06DC080914E
:101CB000E800877F8093E8008091E80082FD05C0FE
:101CC0008091DE018111F8CF5FC08091F100809397
:101CD0006B018091E8008B7753C08091DF01813ADE
:101CE00009F052C08091E3019091E401892B09F041
:101CF0004BC08091E800877F8093E8008091E800E6
:101D000080FFFCCF80910B0136C08091DF018132D2
:101D1000D9F58091E3019091E401892BA9F5809197
:101D2000E800877F8093E8000E94B5108091E10170
:101D300080930B010C94C9188091DF01813221F549
:101D40008091E800877F8093E8000E94B510809121
:101D5000E20180936C0108958091DF01813AA1F442
:101D60008091E800877F8093E8008091E80080FF01
:101D7000FCCF80916C018093F1008091E8008E7718
:101D80008093E8000C94B510089584B7877F84BFD2
:101D900088E10FB6F89480936000109260000FBE47
:101DA00080E880936100109261000E9459140E94A3
:101DB00006110E9459118091E20084608093E20034
:101DC00085E89CE00E94061F78940E94AC130E9454
:101DD0005B1481E091E00E94C71387ED92E00E94BE
:101DE000E9068091DE01853089F483ED92E00E945E
:101DF000E9060E94431F8091DC01882391F30E9431
:101E00006E1F882371F30E94610FEBCF0E947F1435
:101E1000E8CF292F332723303105C9F064F421306E
:101E2000310581F02230310509F043C084E790E0AC
:101E300022E133E042C021323105F1F02232310596
:101E400041F137C082E190E026E833E036C09927BF
:101E50008130910541F08230910541F0892B49F59F
:101E6000EEE0F3E005C0E4E0F3E002C0E4EFF2E00E
:101E7000849190E09F0121C06430D8F4E62FF0E017
:101E8000EE0FFF1FE05DFE4F2081318189E090E081
:101E900014C0643070F470E0FB01EE0FFF1FE85DCA
:101EA000FE4F20813181FB01EC5DFE4F808190E08F
:101EB00004C080E090E020E030E0FA01318320832C
:101EC000089584E089BD86E089BD09B400FEFDCF98
:101ED0008091D8008F7D8093D8008091E00082604F
:101EE0008093E0008091E00081FDFCCF0895CF92C7
:101EF000DF92EF92FF920F931F93CF93DF93EC014A
:101F00008B016A010E94D410811133C0C114D10425
:101F100039F0F60180819181081B190BC80FD91F78
:101F2000E12CF12C0115110519F18091E80085FDD6
:101F300016C08091E8008E778093E800C114D10428
:101F400049F0F60180819181E80EF91EF182E0826C
:101F500085E00FC00E94D410882321F30AC0899124
:101F60008093F10001501109FFEFEF1AFF0ADACF59
:101F700080E0DF91CF911F910F91FF90EF90DF9064
:101F8000CF9008952091E5013091E601261737079B
:101F900048F06115710539F42091E8002E772093FF
:101FA000E80001C0B90140E06115710591F120918F
:101FB000DE01222309F440C0253009F43FC02091FE
:101FC000E80023FD3DC02091E80022FD2FC02091B4
:101FD000E80020FFE9CF2091F20030E0FC01CF01C2
:101FE0006115710559F02830310540F481918093D5
:101FF000F100615071092F5F3F4FF1CF41E0283070
:10200000310509F040E02091E8002E772093E800A8
:10201000CBCF4111CCCF0AC08091DE01882361F083
:10202000853061F08091E80083FD0AC08091E8006E
:1020300082FFF2CF80E0089582E0089583E0089562
:1020400081E008952091E5013091E60126173707D8
:1020500048F06115710539F42091E8002E7720933E
:10206000E80001C0B901FC0120E06115710579F1BA
:102070008091DE01882309F43DC0853009F43CC01D
:102080008091E80083FD3AC08091E80082FD2CC079
:102090008091E80080FFE9CF8091F20090E0611527
:1020A000710559F08830910540F424912093F10096
:1020B0003196615071090196F2CF21E0089709F03D
:1020C00020E08091E8008E778093E800CECF211148
:1020D000CFCF0AC08091DE01882361F0853061F0A6
:1020E0008091E80083FD0AC08091E80082FFF2CF72
:1020F00080E0089582E0089583E0089581E00895E6
:10210000982F953058F59093E900981739F0709111
:10211000EC002091ED005091F00003C0242F762FA9
:1021200050E021FF19C03091EB003E7F3093EB006F
:102130003091ED003D7F3093ED003091EB00316048
:102140003093EB007093EC002093ED005093F0007F
:102150002091EE0027FF07C09F5FD3CF8F70809341
:10216000E90081E0089580E008958091DF0187FF14
:1021700011C08091E80082FD05C08091DE018111CF
:10218000F8CF11C08091E8008B770BC08091DE0101
:10219000882349F08091E80080FFF8CF8091E80023
:1021A0008E778093E80008952091E4003091E50057
:1021B00095E64091EC00842F817040FF22C0809111
:1021C000E80080FD1CC08091DE01882391F08530FD
:1021D00091F08091EB0085FD10C04091E40050919A
:1021E000E5004217530729F39A01915011F784E053
:1021F000089582E0089583E0089581E0089580E0E5
:1022000008954091E80042FFDECF08950E946311D7
:102210000E946611E0EEF0E0808181608083E8ED4D
:10222000F0E080818F77808319BCE3E6F0E0808165
:10223000816080831092DD0108950E9463110E94E5
:1022400066118091D8008F778093D8008091D80054
:1022500080688093D8008091D8008F7D8093D800CB
:1022600084E089BD86E089BD09B400FEFDCF1092EF
:10227000DE011092DA011092DC011092DB0142E0E3
:1022800060E080E00E9480108091E1008E7F80936A
:10229000E1008091E20081608093E2008091E200A1
:1022A00088608093E2008091E0008E7F8093E00060
:1022B0000895E3E6F0E080818E7F808381E0809363
:1022C000DD010C941D111092E20008951092E100BE
:1022D00008951F920F920FB60F9211242F933F93E0
:1022E0004F935F936F937F938F939F93AF93BF931E
:1022F000EF93FF938091E10082FF0BC08091E20099
:1023000082FF07C08091E1008B7F8093E1000E94F3
:10231000C00D8091E10080FF18C08091E20080FF35
:1023200014C08091E2008E7F8093E2008091E200F1
:1023300080618093E2008091D80080628093D80011
:1023400019BC1092DE010E94B50D8091E10084FF5E
:1023500030C08091E20084FF2CC084E089BD86E01B
:1023600089BD09B400FEFDCF8091D8008F7D809398
:10237000D8008091E1008F7E8093E1008091E2009F
:102380008F7E8093E2008091E20081608093E20082
:102390008091DA01882311F084E007C08091E30086
:1023A00087FD02C081E001C083E08093DE010E94CE
:1023B000A30D8091E10083FF29C08091E20083FF9B
:1023C00025C08091E100877F8093E10082E08093C7
:1023D000DE011092DA018091E1008E7F8093E100AE
:1023E0008091E2008E7F8093E2008091E200806124
:1023F0008093E20042E060E080E00E9480108091E3
:10240000F00088608093F0000E94BC0DFF91EF9176
:10241000BF91AF919F918F917F916F915F914F91FC
:102420003F912F910F900FBE0F901F9018951F9204
:102430000F920FB60F9211242F933F934F935F93F8
:102440006F937F938F939F93AF93BF93CF93DF93BC
:10245000EF93FF93C091E900CF708091EC00D82FEB
:10246000D17080FDD0E81092E9008091F000877F64
:102470008093F00078940E945B121092E9008091A2
:10248000F00088608093F000CD2BCF70C093E900FE
:10249000FF91EF91DF91CF91BF91AF919F918F917C
:1024A0007F916F915F914F913F912F910F900FBE50
:1024B0000F901F9018951F93CF93DF93CDB7DEB782
:1024C000AA970FB6F894DEBF0FBECDBFEFEDF1E0D7
:1024D00088E08E0F9091F10091938E13FBCF0E94B4
:1024E000150E8091E80083FF1FC18091DF0190915C
:1024F000E001492F50E04A30510508F015C1FA01BA
:10250000E65CFF4F0C94F32A803881F0823809F0A2
:102510000BC18091E3018F708093E9008091EB0003
:1025200085FB882780F91092E90006C08091DB01C5
:102530009091DC01911182609091E800977F9093D7
:10254000E8008093F1001092F100C8C0282F2D7F81
:1025500009F0EAC0882319F0823061F0E5C080916B
:10256000E101813009F0E0C0933009F080E0809310
:10257000DC012BC08091E101811127C08091E30132
:102580008F7009F4D1C08093E9002091EB0020FF07
:102590001CC0933021F48091EB00806214C09091B4
:1025A000EB0090619093EB0021E030E0A90102C0C4
:1025B000440F551F8A95E2F74093EA001092EA0013
:1025C0008091EB0088608093EB001092E90080918D
:1025D000E800877F86C08111A7C01091E1011F77B5
:1025E0008091E3008078812B8093E3008091E80064
:1025F000877F8093E8000E94B5108091E80080FFFB
:10260000FCCF8091E30080688093E300111102C049
:1026100082E001C083E08093DE0186C08058823072
:1026200008F082C08091E1019091E2018C3D53E07D
:10263000950779F583E08A838AE289834FB7F89416
:10264000DE01139620E03EE051E2E32FF0E05093EC
:102650005700E49120FF03C0E295EF703F5FEF70F9
:102660008E2F90E0EA3010F0C79601C0C0968D938F
:102670009D932F5F243149F74FBF8091E800877FFA
:102680008093E8006AE270E0CE0101960E94C20FDA
:1026900014C0AE014F5F5F4F6091E3010E94090FCC
:1026A000BC01009709F440C09091E800977F909397
:1026B000E80089819A810E9422108091E8008B773E
:1026C0008093E80031C0803879F58091E800877FF9
:1026D0008093E8008091DA018093F1008091E80016
:1026E0008E778093E8000E94B5101EC081111CC037
:1026F0009091E1019230C0F48091E800877F80934F
:10270000E8009093DA010E94B5108091DA018111FE
:1027100006C08091E30087FD02C081E001C084E033
:102720008093DE010E94010E8091E80083FF0AC0C1
:102730008091E800877F8093E8008091EB008062C1
:102740008093EB00AA960FB6F894DEBF0FBECDBF04
:10275000DF91CF911F910895CF938091DE0188235F
:10276000A1F0C091E900CF709091EC00892F8170A9
:1027700090FD80E8C82B1092E9008091E80083FD6D
:102780000E945B12CF70C093E900CF91089590939F
:102790007201809371010895E0917101F0917201CD
:1027A000309721F00190F081E02D099480E00895A8
:1027B000EF92FF920F931F93CF93DF93E0917101FC
:1027C000F09172013097B1F18C010280F381E02D1C
:1027D00009958091C90182FF2DC080FF04C083E864
:1027E00094E00E94E906E80118E08DE7E82E84E015
:1027F000F82E8091C90180FF0BC088811F928F93B2
:10280000FF92EF920E9482070F900F900F900F900F
:10281000115021961111EDCF8091C90180FF0AC09E
:102820008BE794E0DF91CF911F910F91FF90EF9094
:102830000C94E906DF91CF911F910F91FF90EF90DB
:102840000895E0917101F0917201309721F00480B8
:10285000F581E02D0994089520916F013091700168
:102860008217930771F09093700180936F01E0914C
:102870007101F0917201309721F00680F781E02D0F
:102880000994089520916D0130916E01821793078C
:1028900071F090936E0180936D01E0917101F09160
:1028A0007201309721F00084F185E02D099408959C
:1028B00008950C9458140E94A51F0E947A0B0C9442
:1028C0006720CF93DF931F92CDB7DEB79091C901F8
:1028D00092FF10C090FF0EC01F928F9325E934E045
:1028E0003F932F9389830E9482070F900F900F9040
:1028F0000F9089810F90DF91CF910C948B079F925D
:10290000AF92BF92CF92DF92EF92FF920F931F93FD
:10291000CF93DF9300D000D000D0CDB7DEB70E94B8
:10292000B90B07E010E0AA24A394B12C902E802FBD
:102930000E94340C98012C583E4F6901F901F08037
:10294000F826A1F40150110988F78FEF89838A8353
:102950001B820E94AE1F8160782F9D838C834981EA
:102960005A816B818D810E9416152FC09091C901EB
:1029700091FF04C08E830E943A0C8E8127E030E0E4
:10298000A501022E01C0440F0A94EAF7E42E4F215C
:10299000C1F029839A828E2191E009F490E09B8313
:1029A0000E94AE1F8160782F9D838C8349815A815C
:1029B0006B818D810E941615F6018081E826E082E8
:1029C00004C021503109E0F6BDCF0E94D5231091FB
:1029D00073010E94CC131817B9F00E94CC13809396
:1029E000730126960FB6F894DEBF0FBECDBFDF9100
:1029F000CF911F910F91FF90EF90DF90CF90BF90FC
:102A0000AF909F900C94611426960FB6F894DEBF99
:102A10000FBECDBFDF91CF911F910F91FF90EF902F
:102A2000DF90CF90BF90AF909F900895CF93DF93AA
:102A3000CDB7DEB72B970FB6F894DEBF0FBECDBF74
:102A40004F83588769877A878B87DE01119686E0E6
:102A5000FD0111928A95E9F785E0FE013796019014
:102A60000D928A95E1F749815A816B817C818D8134
:102A70009E810E94761B2B960FB6F894DEBF0FBE88
:102A8000CDBFDF91CF910895CF93882309F4C2C0C1
:102A9000C82F823859F40E94CC1381FDBBC089E352
:102AA0000E94541E0E94D71E89E30CC0833879F41B
:102AB0000E94CC1380FDAEC083E50E94541E0E948C
:102AC000D71E83E50E94711ECF910C94D71E8438C7
:102AD00059F40E94CC1382FD9DC087E40E94541ECD
:102AE0000E94D71E87E4EECF8CEF8C0F813A48F41A
:102AF0008C2F0E94432881118DC08C2F0E94541E60
:102B0000E3CF80E28C0F883048F4C77081E001C0C9
:102B1000880FCA95EAF70E94901ED6CF8BE58C0FDE
:102B2000833078F4C53A29F0C63A31F083E890E072
:102B300005C081E890E002C082E890E0CF910C945B
:102B40002C1488E58C0F833108F064C0C83A39F141
:102B5000C93A41F1CA3A49F1CB3A51F1CC3A59F16B
:102B6000CD3A61F1C03B69F1CE3A71F1CF3A79F1DA
:102B7000C13B81F1C23B89F1C33B91F1C43B99F167
:102B8000C53BA1F1C63BA9F1C73BB1F1C83BB9F1C7
:102B9000C93BC1F1CA3BC9F180E090E038C082EE88
:102BA00090E035C089EE90E032C08AEE90E02FC010
:102BB00085EB90E02CC086EB90E029C087EB90E09D
:102BC00026C08CEC90E023C08DEC90E020C083E820
:102BD00091E01DC08AE891E01AC082E991E017C037
:102BE00084E991E014C081E292E011C083E292E0B6
:102BF0000EC084E292E00BC085E292E008C086E25B
:102C000092E005C087E292E002C08AE292E0CF91B2
:102C10000C944214CF910895882309F44BC0823854
:102C200059F40E94CC1381FF45C089E30E94541ED1
:102C30000E94D71E89E30CC0833871F40E94CC1324
:102C400080FF38C083E50E94541E0E94D71E83E592
:102C50000E94711E0C94D71E843859F40E94CC1324
:102C600082FF28C087E40E94541E0E94D71E87E47A
:102C7000EFCF9CEF980F913A58F390E2980F98306D
:102C800050F4877091E001C0990F8A95EAF7892F77
:102C90000E94961EDFCF9BE5980F933020F480E0D2
:102CA00090E00C942C14885A833120F480E090E05A
:102CB0000C9442140895882321F00E94901E0C94D5
:102CC000D71E0895882321F00E94961E0C94D71ECB
:102CD00008957F928F929F92AF92BF92CF92DF9290
:102CE000EF92FF920F931F93CF93DF931F92CDB775
:102CF000DEB77C01C62E772EFC01058102950F7090
:102D0000128111110E94AD1E0E944D1E882379F080
:102D1000112369F080E28C0D883048F082E00E9437
:102D2000361E0E944D1E91E0D82ED92601C0D12C0E
:102D3000E72DE295EF70F0E0EC5BFF4F0C94F32A87
:102D4000872D807F072D0F70882311F00295007F5B
:102D5000112389F0002309F498C180E28C0D88309A
:102D600020F4802F0E94901E03C0802F0E94A01E7E
:102D70000E94D71E8AC18C2D0E940C16002309F4D4
:102D80009DC180E28C0D883020F4802F0E94961E19
:102D900003C0802F0E94A61E0E94D71E8FC1872DC0
:102DA000807F972D9F70803211F4892F03C0892F67
:102DB0008295807FCC2021F0F1E0CF16A1F01DC0DC
:102DC000112339F0002319F1013009F50E94C01ECA
:102DD00075C1002319F0013009F470C189830E9484
:102DE000C31E898110C1112321F0063008F066C18D
:102DF0000EC0053008F062C106C1112359F000234E
:102E000031F0F701958190FF40C19F7095830E943A
:102E10005B1654C1002309F4F6C03DC1872D869589
:102E20008695837090E0009719F0019761F046C194
:102E3000112321F08C2D972D937002C080E090E03B
:102E40000E942C143BC1112321F08C2D972D9370DF
:102E500002C080E090E00E94421430C18C2D11230A
:102E600019F00E945B2202C00E94C3220E944823E4
:102E700025C1872D837009F052C011111FC18C2DFF
:102E8000829586958770880F880F9C2D9F70892E5C
:102E9000912CA12CB12C082E04C0880C991CAA1CC2
:102EA000BB1C0A94D2F7C4FE14C00FE010E020E06F
:102EB00030E0B901A80104C0440F551F661F771FF9
:102EC0008A95D2F7CB01BA0160957095809590955F
:102ED00003C060E070E0CB01272D26952695237076
:102EE00030E02230310569F02330310589F068295E
:102EF00079298A299B292130310571F00E94C21C51
:102F0000DDC0682979298A299B290E94DE1CD6C048
:102F10000E94C21CC501B4010E94A61CCFC011238F
:102F200019F0872D817001C08695882309F4C6C0E9
:102F30008C2D829586958770880F880F9C2D9F70A9
:102F4000892E912CA12CB12C082E04C0880C991C20
:102F5000AA1CBB1C0A94D2F7C4FE14C00FE010E0F8
:102F600020E030E0B901A80104C0440F551F661FDE
:102F7000771F8A95D2F7CB01BA016095709580953D
:102F8000909503C060E070E0CB01272D2695269533
:102F90002370422F50E04230510569F04330510513
:102FA00089F0682979298A299B294130510571F0D6
:102FB0000E949C1D83C0682979298A299B290E9427
:102FC000B81D7CC00E949C1DC501B4010E94801DDB
:102FD00075C08C2D90E0FC01E05EF109E531F10552
:102FE00008F04FC0EC5AFF4F0C94F32A0C2D0F70D1
:102FF000872D8F71112321F00E94191D802F07CF7B
:103000000E943A1D802F0E94621658C0112341F081
:10301000053008F053C0872D8F710E945F1D4EC090
:10302000063008F04BC0F7CF112339F0872D8F7190
:103030000E94191D43C01123C9F3872D8F710E946F
:103040003A1D3CC0112329F0872D8F710E94041D69
:1030500035C00E94FA1C32C0112351F0172D1F7188
:10306000812F0E94191D63E0812F0E942D1E26C012
:1030700081E00E94361E023008F182E00E94361E76
:103080001DC0112331F0002389F28C2D0E944415BC
:1030900015C0002391F28C2D0E940C160FC0472DF5
:1030A0004F706C2DC7010E94A6070E941E1C06C00F
:1030B000472D4F706C2DC7010E946808DD20F9F084
:1030C0000E94291E80FD1BC0F70112820E94231E50
:1030D0000E94191DC7010E948E180E94231E0F9086
:1030E000DF91CF911F910F91FF90EF90DF90CF90E4
:1030F000BF90AF909F908F907F900C943A1D0F904F
:10310000DF91CF911F910F91FF90EF90DF90CF90C3
:10311000BF90AF909F908F907F9008950F931F93D3
:10312000CF93DF93EC01888199812B813C81232B04
:10313000B9F09F3F11F48F3F99F0CE010E94BC0778
:10314000882371F0688179818A810E941F1E8C0119
:103150000E94D41D0E949B1CB801CE010E946916DA
:10316000DF91CF911F910F9108950E94AD1E0E9493
:10317000BD1E0E94821E0E94D71E0E947D240E94B6
:10318000482380E090E00E942C1480E090E00C94B2
:1031900042140E949D1E0C94B5180E94141E292FE3
:1031A00022952F7030E02C3031054CF42A30310557
:1031B0006CF42250310922303105A8F407C02C30BC
:1031C000310569F02F30310551F00DC0803F69F0B5
:1031D00018F4803E40F409C0843F29F406C093FBF4
:1031E000882780F9089580E0089581E00895CF93BD
:1031F000DF9300D000D01F92CDB7DEB70F900F90B5
:103200000F900F900F90DF91CF910895CF93DF93A0
:1032100000D000D000D0CDB7DEB726960FB6F89418
:10322000DEBF0FBECDBFDF91CF910895CF93DF9367
:10323000C0917C0180917D01C817A1F0D0E0CE0142
:1032400066E070E00E94C22AFC01E258FE4F408115
:10325000518162817381848195810E940619219632
:10326000C770E8CFDF91CF9108954091AE015091A2
:10327000AF016091B0017091B1018091B201909164
:10328000B3010C940619CF93DF938091B30182951B
:103290008F7009F05CC08091B001882309F457C099
:1032A00020917C01D0917D014091AE01C091AF0190
:1032B000E091B101F091B2012D1709F448C030E05E
:1032C000309709F440C0CF3F11F44F3FE1F1C901FD
:1032D00066E070E00E94C22ADC01A258BE4F11963F
:1032E0008C911197C8132FC08C9148132CC0129643
:1032F0008C911297811127C013968D919C911497F0
:103300008E179F0708F401978E1B9F0B883C910531
:10331000D0F48091B3018F7080618093B301C901B3
:1033200066E070E00E94C22AFC01ED57FE4F9081DA
:103330009F70906190838EEA91E00E948E18DF91D9
:10334000CF910C9416192F5F3F4F2770B5CFDF91A7
:10335000CF910895BF92CF92DF92EF92FF920F9399
:103360001F93CF93DF93CDB7DEB761970FB6F89475
:10337000DEBF0FBECDBF8C0185E0F801DE011D96DA
:1033800001900D928A95E1F7D8014C9111962C91FC
:1033900011971296EC9012971396CD90DC9014979B
:1033A0005091AE016091AF018091B1019091B20155
:1033B000009709F46EC16F3F19F45F3F09F469C1CA
:1033C000B090B001BB2009F4C3C03091B301C8165E
:1033D000D90628F0F601E81BF90BCF0104C080954F
:1033E00090958C0D9D1DFF24F394883C910588F0E9
:1033F000F12C307F09F0CBC07C2DD98AC88A522F9E
:103400006E2D89890E94F7188EEA91E00E948E182D
:10341000B4C0832F807F09F049C0621314C05413D5
:1034200012C0E11010C03F7030613093B3010E94B0
:1034300035198EEA91E00E948E188091B301D8016F
:1034400015968C9331C0CD2831F12F3F11F44F3FA9
:1034500011F1FE2CE1101FC0E0917C0130917D0143
:10346000E31709F45CC0F0E0CF0166E070E00E9471
:10347000C22ADC01A258BE4F11968C9111972813D5
:1034800007C08C91481304C012968C91811103C01F
:103490003196E770E5CFFE2CEE2009F416C180913D
:1034A000B30181608093B301F12C0FC1621308C096
:1034B000541306C0E11004C08091B301D801C1C00B
:1034C0004D872E878D859E850E94CD188823E1F13A
:1034D000EE20D1F12091B301822F82958F7090E080
:1034E000029774F08091AE019091AF0198878F831D
:1034F0001986DB86CA862C87CE0107960E948E1815
:1035000086E0F801AEEAB1E001900D928A95E1F70C
:103510000E9443190E943519FF24F394D6C04D87A9
:103520002E878D859E850E94141E292F22952F702F
:1035300030E0223031050CF0BCC09F7009F0B6C0FD
:10354000805E883008F4C1C0C8010E948E18E4CFA4
:10355000C816D90608F453C0F601E81BF90BCF01D1
:10356000883C910508F450C0F12C7C2DD98AC88A7A
:10357000522F6E2D89890E94F718EEEAF1E086E05D
:10358000DF011D928A95E9F70E9435199EC06213EA
:1035900014C0541312C0E11010C08091B301F8019F
:1035A0008583C8010E948E1886E0EEEAF1E0DF0113
:1035B0001D928A95E9F7FB2C88C04D872E878D8553
:1035C0009E850E94CD18882309F4BECFEE2009F411
:1035D000BBCF2091B301822F82958F7090E002972C
:1035E0000CF48ECF8091AE019091AF019A838983C4
:1035F0001B82DD82CC822E83CE0101967FCF809507
:1036000090958C0D9D1DACCFFE2CEE2009F49CCF27
:1036100062132EC054132CC02091B30120FD1FC093
:10362000822F82958F70D9F0D80115962C9315971B
:103630008F3049F08F5F982F9295907F822F8F70F7
:10364000892B15968C93C8010E948E1886E0F8018C
:10365000AEEAB1E001900D928A95E1F795CF86E050
:10366000F801AEEAB1E001900D928A95E1F72DC024
:103670004D872E878D859E850E94CD18811140CF64
:103680008091B30181608093B301C8010E948E18BC
:103690001CC0EE2009F458CF4D872E878D859E855E
:1036A0000E94CD18882309F44FCF2ACF811148CF2B
:1036B0000CC0243031050CF047CF9F7009F440CF87
:1036C000F8019581907F09F03BCF8F2D61960FB661
:1036D000F894DEBF0FBECDBFDF91CF911F910F9148
:1036E000FF90EF90DF90CF90BF900895CF93DF933E
:1036F000CDB7DEB72C970FB6F894DEBF0FBECDBFA7
:103700004F83588769877A878B879C87CE01079676
:103710000E94AA19882371F08F8198852A853B859C
:10372000232B09F43FC09F3F09F068C08F3F09F089
:1037300065C038C086E0FE013796DE011196019023
:103740000D928A95E1F76F817885EA85FB85309740
:1037500049F17F3F11F46F3F29F180917D0190E0A5
:103760009C012F5F3F4F2770332740917C0150E031
:103770002417350709F44BC069837A83FD83EC83F2
:1037800066E070E00E94C22ADC01A258BE4F96E0BB
:10379000FE01319601900D929A95E1F720937D01FB
:1037A0000E94161980917C0190917D018917E9F1A1
:1037B00090E066E070E00E94C22A82589E4F0E940C
:1037C000AA19882391F180917C0190E066E070E075
:1037D0000E94C22AFC01E258FE4F40815181628161
:1037E0007381848195810E94061980917C0190E00B
:1037F00001968770992780937C01D4CF4F8158859B
:1038000069857A858B859C850E940619CBCF0E949D
:10381000C91810927D0110927C01EEEAF1E086E079
:10382000DF011D928A95E9F7BDCF2C960FB6F8946B
:10383000DEBF0FBECDBFDF91CF910895EF92FF9213
:103840000F931F93CF93DF938C01009709F46CC003
:10385000F12CEE24E394E8012196F8018491843759
:1038600040F4843008F051C0813081F0823019F189
:103870005BC0853709F444C0A8F19CE7980F9037E6
:1038800008F052C08F770E940C1641C00E5F1F4F88
:10389000FE01C49180E28C0F883048F4C7708E2DF1
:1038A00001C0880FCA95EAF70E94B01E14C08C2F81
:1038B0000E9444152DC00E5F1F4FFE01C49180E28F
:1038C0008C0F883058F4C7708E2D01C0880FCA95B0
:1038D000EAF70E94B61E0E94D71E1AC08C2F0E94C3
:1038E0000C1616C00E5F1F4FFE01C491CC2381F051
:1038F0008FE99FE00197F1F700C00000C150F6CFBB
:103900000E5F1F4FFE01F49003C00E9444158E010C
:103910008F2D882309F49FCFEFE9FFE03197F1F76E
:1039200000C000008150F5CFDF91CF911F910F9122
:10393000FF90EF90089508956093B8017093B901D6
:103940008093BA019093BB010C94B5180F931F9309
:103950000091B8011091B9012091BA013091BB01D9
:10396000DC01CB01802B912BA22BB32B8093B801D0
:103970009093B901A093BA01B093BB011F910F912D
:103980000C94B5180F931F930091B8011091B901D1
:103990002091BA013091BB01DC01CB01802391233E
:1039A000A223B3238093B8019093B901A093BA01E5
:1039B000B093BB011F910F910C94B5180F931F93F7
:1039C0000091B8011091B9012091BA013091BB0169
:1039D000DC01CB0180279127A227B3278093B80170
:1039E0009093B901A093BA01B093BB011F910F91BD
:1039F0000C94B5181092B4011092B5011092B60152
:103A00001092B7010C94B51841E050E060E070E00E
:103A100004C0440F551F661F771F8A95D2F7409345
:103A2000B4015093B5016093B6017093B7010C9443
:103A3000B51841E050E060E070E004C0440F551F4D
:103A4000661F771F8A95D2F78091B4019091B501D6
:103A5000A091B601B091B701482B592B6A2B7B2B53
:103A60004093B4015093B5016093B6017093B701D0
:103A70000C94B51841E050E060E070E004C0440FE1
:103A8000551F661F771F8A95D2F740955095609510
:103A900070958091B4019091B501A091B601B0915B
:103AA000B701482359236A237B234093B4015093E1
:103AB000B5016093B6017093B7010C94B51841E05D
:103AC00050E060E070E004C0440F551F661F771F90
:103AD0008A95D2F78091B4019091B501A091B60179
:103AE000B091B701482759276A277B274093B40133
:103AF0005093B5016093B6017093B7010C94B5185B
:103B00000F931F930091B4011091B5012091B6015C
:103B10003091B701DC01CB01802B912BA22BB32B71
:103B20008093B4019093B501A093B601B093B7010F
:103B30001F910F910C94B5180F931F930091B4012E
:103B40001091B5012091B6013091B701DC01CB0194
:103B500080239123A223B3238093B4019093B501D2
:103B6000A093B601B093B7011F910F910C94B518B3
:103B70000F931F930091B4011091B5012091B601EC
:103B80003091B701DC01CB0180279127A227B32711
:103B90008093B4019093B501A093B601B093B7019F
:103BA0001F910F910C94B5180895CF92DF92EF9268
:103BB000FF920F931F93CF93DF938C01C090B801B6
:103BC000D090B901E090BA01F090BB018091B401AE
:103BD0009091B501A091B601B091B701C82AD92A38
:103BE000EA2AFB2ACFE1D0E0D701C6010C2E04C09F
:103BF000B695A795979587950A94D2F780FF06C04A
:103C0000B8018C2F0E94C70A019721F4219760F711
:103C100080E001C08C2FDF91CF911F910F91FF9019
:103C2000EF90DF90CF900895CF93DF93EC010E9447
:103C3000D51DBE010E94C70ADF91CF910895CB0127
:103C40000E94141E08958091BC01859585958595E7
:103C500008958091BC0187700895982F990F990F4E
:103C6000990F692B6093BC010C94191D2091BC0124
:103C7000809582238093BC01982F977069F430E07F
:103C8000482F552747FD50952417350729F085956E
:103C9000859585950C943A1D08959091BC01977077
:103CA00081E009F480E0089520910C0130910D012C
:103CB000F90132969FEF40E05191581789F09F3FEC
:103CC00019F4511101C0942F4F5F4630A9F79F3F5F
:103CD00039F0F901E90FF11D97FDFA9582830895F6
:103CE000089520910C0130910D01F9013296285F61
:103CF0003F4F9081981301C010823196E217F3076D
:103D0000C1F7089581E090E0E0910C01F0910D0180
:103D1000E80FF91F1082019688309105A9F70895E0
:103D20009091C801892B8093C80108958095909146
:103D3000C80189238093C80108951092C80108958D
:103D40009091C701892B8093C70108958095909128
:103D5000C70189238093C70108951092C701089570
:103D60009091C601892B8093C6010895809590910A
:103D7000C60189238093C60108951092C601089553
:103D80008093BD0108951092BD01089580910C01AA
:103D900090910D01FC0131969C01285F3F4F80E01E
:103DA000919191118F5FE217F307D1F70895E09198
:103DB0000C01F0910D018091C8018083E0910C010C
:103DC000F0910D0190818091C701892B8083E09152
:103DD0000C01F0910D0190818091C601892B8083A7
:103DE0008091BD01882361F0E0910C01F0910D01FB
:103DF0009081892B80830E94C61E81111092BD0183
:103E000080910C0190910D010C94D8139093430173
:103E100080934201089520E0009739F0AC014150B1
:103E20005109842395232F5FF7CF822F0895829520
:103E3000982F9C7C292F26952695982F9373990F60
:103E4000990F922B892F8A7A86959575990F892BD0
:103E500008951F93CF93DF931F92CDB7DEB7998359
:103E60000E94171F182F9981892F0E94171F212F39
:103E700030E0322F2227A901482BCA010F90DF9191
:103E8000CF911F9108958091DE01843021F110922D
:103E9000CA0120E488E190E00FB6F894A8958093D9
:103EA00060000FBE2093600080E00E948B0783B704
:103EB000817F846083BF83B7816083BF7894889556
:103EC00083B78E7F83BF88E10FB6F894809360003C
:103ED000109260000FBE0895089508950E946C1F0F
:103EE0000E94B90B0E946D1F0E946C0C91E0811121
:103EF00001C090E0892F08951F920F920FB60F9284
:103F000011248F939F93AF93BF938091CA01811126
:103F100013C08091CB019091CC01A091CD01B091C3
:103F2000CE014196A11DB11D8093CB019093CC0190
:103F3000A093CD01B093CE01BF91AF919F918F918E
:103F40000F900FBE0F901F90189582E084BD93E0F4
:103F500095BD9AEF97BD80936E0008952FB7F894A2
:103F60008091CB019091CC01A091CD01B091CE0177
:103F70002FBF0895CF92DF92EF92FF920F931F937E
:103F80002FB7F8944091CB015091CC016091CD01B5
:103F90007091CE012FBF6A017B01EE24FF248C01BA
:103FA00020E030E0C016D106E206F30610F44150DE
:103FB00051099A01281B390BC9011F910F91FF90DC
:103FC000EF90DF90CF9008951F920F920FB60F924F
:103FD00011248F939F93AF93BF938091CB019091C6
:103FE000CC01A091CD01B091CE010196A11DB11DD2
:103FF0008093CB019093CC01A093CD01B093CE01DF
:10400000BF91AF919F918F910F900FBE0F901F9016
:1040100018950E940611F8942FEF87EA91E6215037
:1040200080409040E1F700C0000087E090EBDC01A9
:104030008093E8019093E901A093EA01B093EB012A
:104040009CE088E10FB6F894A895809360000FBEBD
:1040500090936000FFCFEF92FF920F931F93CF9347
:10406000DF93D82FC7E08C2F0E94340C07E010E0BC
:10407000E82EF12CC701002E02C0959587950A9471
:10408000E2F780FF09C0602F7C2F80E00E94690862
:10409000D81302C081E006C00150110958F7C15081
:1040A00010F780E0DF91CF911F910F91FF90EF907B
:1040B0000895CF93C82F8CE20E942B20882321F0F3
:1040C0008C2FCF910C942B2080E0CF910895CF932B
:1040D0000E94AF21811102C00E94952185EB94E0DE
:1040E0000E94E906C5E6C15049F00E94B90B8FE372
:1040F0009CE90197F1F700C00000F5CF8EEA94E04B
:104100000E94E90689E20E94592081110CC18AE2CD
:104110000E94592081110E94952185E00E9459201A
:1041200081110E9409200E94BA218093C90187E071
:104130000E9459208823A9F18BE10E9459208823ED
:1041400051F08091C90181FB222720F991E092274B
:1041500090FB81F90EC08EE00E945920882361F007
:104160008091C90182FB222720F991E0922790FBE0
:1041700082F98093C90115C080E10E945920909175
:10418000C901882341F093FB222720F981E082278F
:1041900080FB93F904C0892F809580FB90F9909360
:1041A000C9018091C9010E94BE210E94CC21809347
:1041B000E70180EE0E945920882341F08091E701B9
:1041C000982F909590FB80F98093E70189E30E94F6
:1041D0005920882359F08091E70181FB222720F99B
:1041E00091E0922790FB81F98093E70182EE0E9493
:1041F0005920882359F08091E70182FB222720F97A
:1042000091E0922790FB82F98093E70186EE0E946D
:104210005920882359F08091E70183FB222720F958
:1042200091E0922790FB83F98093E70183EE0E944F
:104230005920882359F08091E70184FB222720F937
:1042400091E0922790FB84F98093E70185E30E9437
:104250005920882359F08091E70185FB222720F916
:1042600091E0922790FB85F98093E70181E30E941A
:104270005920882359F08091E70186FB222720F9F5
:1042800091E0922790FB86F98093E70181E10E94FB
:104290005920882359F08091E70187FB222720F9D4
:1042A00091E0922790FB87F98093E7018091E701E5
:1042B0000E94D02187E20E945920C82F8EE10E94DF
:1042C00059208111C2608FE10E9459208111C46080
:1042D00080E20E9459208111C86081E20E94592029
:1042E0008111C06182E20E9459208111C06283E283
:1042F0000E9459208111C06484E20E9459208823C1
:1043000011F0C06802C0CC2329F08C2F0E94C72175
:104310006C2F03C00E94C321682F70E080E090E002
:10432000CF910C949C1CCF9108956DEE7EEF80E0B0
:1043300090E00E942D2B60E082E090E00E941B2B19
:1043400060E083E090E00E941B2B60E084E090E05E
:104350000E941B2B60E085E090E00C941B2B80E01A
:1043600090E00E94152B21E08D3E9E4F09F020E049
:10437000822F089582E090E00C940D2B682F82E04C
:1043800090E00C941B2B83E090E00C940D2B682F95
:1043900083E090E00C941B2B84E090E00C940D2BB8
:1043A000682F84E090E00C941B2B8091D10180FF5A
:1043B0000CC08091110190E065E070E00E94C22A7B
:1043C00095958795959587952EC081FF0AC0809118
:1043D000110190E065E070E00E94C22A95958795F2
:1043E00022C082FF08C08091110190E065E070E07A
:1043F0000E94C22A18C02091D2012223D1F030910C
:104400001001231780F78091110190E065E070E0C2
:104410000E94C22A622F70E00E94C22A632F70E0BD
:104420000E94DF2ACB018038910530F4009731F0EB
:10443000089585E090E008958FE7089581E008955C
:104440008091D10180FF08C060910F0170E07595E7
:1044500067957595679523C081FF06C060910F0130
:1044600070E0759567951BC082FF04C060910F01D5
:1044700070E012C06091D2016623D1F020910E014C
:104480006217A0F780910F0170E090E00E94C22AAD
:10449000622F70E00E94DF2A6038710528F46115F0
:1044A000710521F0862F08958FE7089581E0089522
:1044B00061E070E0F4CF803F21F40E94D521819526
:1044C00004C0813F29F40E94D5218093D50108952D
:1044D000823F21F40E94D521819504C0833F29F4B5
:1044E0000E94D5218093D4010895893F19F40E9438
:1044F000202205C08A3F31F40E94202281958093BA
:10450000D60108958B3F21F40E942022819504C09A
:104510008C3F29F40E9420228093D7010895843F84
:1045200021F48091D301816017C0853F21F48091EF
:10453000D301826011C0863F21F48091D301846051
:104540000BC0873F21F48091D301886005C0883F6C
:1045500031F48091D30180618093D30108958D3F20
:1045600021F48091D10181600BC08E3F21F48091B4
:10457000D101826005C08F3F29F48091D101846010
:104580008093D1010895803F39F48091D50187FF50
:104590006CC01092D50169C0813F29F48091D5018A
:1045A0001816BCF362C09091D401823F29F497FFA2
:1045B0005CC01092D40159C0833F19F41916CCF392
:1045C00054C0893F41F48091D60118160CF04DC0BB
:1045D0001092D6014AC08A3F29F48091D60187FF04
:1045E00044C0F6CF8B3F39F48091D70187FF3DC09F
:1045F0001092D7013AC08C3F29F48091D701181648
:10460000BCF333C0843F21F48091D3018E7F17C067
:10461000853F21F48091D3018D7F11C0863F21F425
:104620008091D3018B7F0BC0873F21F48091D30110
:10463000877F05C0883F31F48091D3018F7E8093BE
:10464000D30113C08D3F21F48091D1018E7F0BC027
:104650008E3F21F48091D1018D7F05C08F3F29F4D9
:104660008091D1018B7F8093D1018091D401811100
:104670000EC08091D50181110AC08091D6018111AF
:1046800006C08091D701811102C01092D201089515
:104690008091C90183FF7EC081EF94E00E94E9060A
:1046A0008091D3011F928F938CEE94E09F938F9310
:1046B0000E9482078AEE94E00E94E9068091D4016C
:1046C000282F332727FD30953F938F9387EE94E073
:1046D0009F938F930E94820785EE94E00E94E906E3
:1046E0008091D501282F332727FD30953F938F9355
:1046F00082EE94E09F938F930E94820780EE94E075
:104700000E94E9068091D601282F332727FD309596
:104710003F938F938DED94E09F938F930E94820738
:104720008BED94E00E94E9068091D701282F332772
:1047300027FD30953F938F9388ED94E09F938F935F
:104740000E94820785ED94E00E94E9068091D201E3
:104750001F928F9382ED94E09F938F930E94820724
:1047600080ED94E00E94E9068091D1011F928F9321
:104770008DEC94E09F938F930E9482078AEC94E0E3
:104780000E94E9068DB79EB74C960FB6F8949EBF6F
:104790000FBE8DBF83ED91E00E9421140E94AE1FD9
:1047A0009093D0018093CF0108951F93CF93DF930F
:1047B0008091CF019091D0010E94BA1FFC012091FD
:1047C000D201222329F090911201892F90E007C095
:1047D0008091130190E06AE070E00E94C22AE8171D
:1047E000F90708F486C08091D401C091D501D09119
:1047F000D6011091D701811107C0C11176C0D11126
:1048000074C0111172C075C02F3F19F02F5F209333
:10481000D201181624F40E94D5218093D4018091EE
:10482000D40187FF05C00E94D52181958093D401D2
:104830001C1624F40E94D5218093D5018091D501C6
:1048400087FF05C00E94D52181958093D501609195
:10485000D401662339F1C091D501CC2319F1772712
:1048600067FD7095872F972F0E94CB2923E333E3B1
:1048700043E35FE30E942F2A0E9498296093D401AA
:104880006C2F772767FD7095872F972F0E94CB2974
:1048900023E333E343E35FE30E942F2A0E94982936
:1048A0006093D5011D1624F40E9420228093D60126
:1048B0008091D60187FF05C00E94202281958093B8
:1048C000D601111624F40E9420228093D7018091F2
:1048D000D70187FF05C00E94202281958093D701D0
:1048E000DF91CF911F910C9448232F3F09F08ECF79
:1048F00096CFDF91CF911F910895E3EDF1E085E030
:10490000DF011D928A95E9F71092D2011092D10130
:10491000089584E197E00E94E9061F9281E08F9359
:104920001F9285E08F9386EC96E09F938F930E9471
:1049300082070F900F900F900F900F900F90089597
:104940008330E9F128F4813061F0823009F1089573
:10495000853009F462C008F449C0863009F474C097
:10496000089580911301262F30E0280F311D2F3F2D
:10497000310524F4680F6093130103C08FEF809317
:104980001301809113011F928F938FEF95E072C0F6
:1049900080911201262F30E0280F311D2F3F310565
:1049A00024F4680F6093120103C08FEF809312010B
:1049B000809112011F928F938DEE95E05BC08091E4
:1049C0001101262F30E0280F311D2F3F310524F42F
:1049D000680F6093110103C08FEF809311018091E4
:1049E00011011F928F938AED95E044C080911001D0
:1049F000262F30E0280F311D2F3F310524F4680F9A
:104A00006093100103C08FEF80931001809110011B
:104A10001F928F9385EC95E02DC080910F01262F7A
:104A200030E0280F311D2F3F310524F4680F6093CB
:104A30000F0103C08FEF80930F0180910F011F9230
:104A40008F938CEA95E016C080910E01262F30E0FE
:104A5000280F311D2F3F310524F4680F60930E019C
:104A600003C08FEF80930E0180910E011F928F93F0
:104A700081E995E09F938F930E9482070F900F909A
:104A80000F900F900895833081F128F4813059F010
:104A90008230D1F00895853009F449C0B8F18630EC
:104AA00009F456C0089580911301681720F4861BFD
:104AB0008093130102C010921301809113011F9281
:104AC0008F9382E895E054C080911201681720F41A
:104AD000861B8093120102C0109212018091120174
:104AE0001F928F9380E795E043C080911101681772
:104AF00020F4861B8093110102C010921101809155
:104B000011011F928F938DE595E032C080911001C5
:104B1000681720F4861B8093100102C010921001C8
:104B2000809110011F928F9388E495E021C08091BD
:104B30000F01681720F4861B80930F0102C01092AA
:104B40000F0180910F011F928F938FE295E010C0AB
:104B500080910E01681720F4861B80930E0102C01D
:104B600010920E0180910E011F928F9384E195E0C7
:104B70009F938F930E9482070F900F900F900F903A
:104B80000895CF93C82F1F928F9389E198E09F9348
:104B90008F930E94820781E090E0A0E0B0E0BC012A
:104BA000CD0104C0660F771F881F991FCA95D2F7E1
:104BB0000E949C1C0F900F900F900F90CF910C941F
:104BC000C918CF938732B0F58E3108F04AC28E30C3
:104BD00009F4C4C100F5873009F48DC1A8F486300A
:104BE00009F045C28091C901817F8E7F8093C90100
:104BF00086E899E00E94E9068FE19DE00E94E906BF
:104C000081E08093D90175C1883009F43FC08B30B1
:104C100009F46BC12CC2863109F4E6C120F480315D
:104C200009F4B0C124C2893109F4C7C18B3109F438
:104C300081C11DC2883309F458C150F4893209F486
:104C400012C2853309F40FC2873209F40CC20FC2B5
:104C5000833409F408C228F48A3308F408C289535B
:104C600003C2883409F003C20E94C91883E09DE0A2
:104C70000E94E9069FEF23ED80E3915020408040A1
:104C8000E1F700C000000E94092033C183E29DE0EB
:104C90000E94E90685E89CE00E94E9060E94C32183
:104CA0001F928F9382E89CE09F938F930E948207CC
:104CB00080E89CE00E94E9060E94BA21C82F8DE698
:104CC0009CE00E94E9061F92CF9388E69CE09F93A8
:104CD0008F930E94820786E69CE00E94E9068CE59D
:104CE0009CE00E94E9068C2F81701F928F9389E5CA
:104CF0009CE09F938F930E94820787E59CE00E942F
:104D0000E9068DE49CE00E94E906C1FB882780F952
:104D10001F928F938AE49CE09F938F930E94820757
:104D200088E49CE00E94E9068CE39CE00E94E9068E
:104D3000C2FB882780F91F928F9389E39CE09F93A1
:104D40008F930E94820787E39CE00E94E9068EE22F
:104D50009CE00E94E906C3FBCC27C0F91F92CF93C9
:104D60008BE29CE09F938F930E94820789E29CE0F4
:104D70000E94E9060E94CC21C82F85E19CE00E9498
:104D8000E9061F92CF9380E19CE09F938F930E944E
:104D900082078EE09CE00E94E90685EF9BE00E947E
:104DA000E9068C2F81701F928F9382EF9BE09F9377
:104DB0008F930E9482078DB79EB780960FB6F894A6
:104DC0009EBF0FBE8DBF80EF9BE00E94E90689ED7C
:104DD0009BE00E94E906C1FB882780F91F928F9310
:104DE00086ED9BE09F938F930E94820784ED9BE06A
:104DF0000E94E90682EC9BE00E94E906C2FB88273C
:104E000080F91F928F938FEB9BE09F938F930E946B
:104E100082078DEB9BE00E94E9068BEA9BE00E94F3
:104E2000E906C3FB882780F91F928F9388EA9BE0ED
:104E30009F938F930E94820786EA9BE00E94E90677
:104E40008CE99BE00E94E906C4FB882780F91F9249
:104E50008F9389E99BE09F938F930E94820787E954
:104E60009BE00E94E90685E89BE00E94E906C5FBFD
:104E7000882780F91F928F9382E89BE09F938F93FE
:104E80000E94820780E89BE00E94E90684E69BE09E
:104E90000E94E906C6FB882780F91F928F9381E65E
:104EA0009BE09F938F930E9482078FE59BE00E9477
:104EB000E90687E59BE00E94E906C7FBCC27C0F91D
:104EC0001F92CF9384E59BE09F938F930E9482076C
:104ED00082E59BE00E94E9068DB79EB74C960FB61F
:104EE000F8949EBF0FBE8DBF04C08DEA99E00E946A
:104EF000E906C1E0C1C08091C901C82FC095C17049
:104F0000C0FB80F98093C901CC2349F087EF9CE076
:104F10000E94E9068091C9018660886048C08AEED7
:104F20009CE00E94E9068091C901897F877F809378
:104F3000C901DFCF9091C90191FBCC27C0F981E075
:104F4000C827892FC0FB81F98093C901CC2319F0B0
:104F50008DED9CE027C08FEC9CE0C9CF9091C901FA
:104F600092FBCC27C0F981E0C827892FC0FB82F9CA
:104F70008093C901CC2319F080EC9CE013C080EB36
:104F80009CE0B5CF9091C90193FBCC27C0F981E09B
:104F9000C827892FC0FB83F98093C901CC2351F026
:104FA00084EA9CE00E94E9068091C90181608093B7
:104FB000C90162C087E99CE09ACF87E799E00E9427
:104FC000E9068FE499E00E94E9068DE199E00E94EC
:104FD000E90680EF98E00E94E90680EB98E00E94E5
:104FE000E90684E898E083CF86E798E00E94E90626
:104FF0000E94CC131F928F938CE598E09F938F9320
:105000000E94820780910B011F928F9385E498E0A4
:105010009F938F930E94820780916C011F928F93C0
:1050200082E398E09F938F930E9482078091CB0147
:105030009091CC01A091CD01B091CE01BF93AF93DF
:105040009F938F938EE198E09F938F930E948207A6
:105050008DB79EB742960FB6F8949EBF0FBE8DBF18
:1050600048CF8D5101C080E00E94C12542CF85E923
:105070009CE00E94E906C0E08C2FCF91089580E06B
:10508000089580E00895CF93C82F8091D901813091
:1050900071F020F0823009F44BC042C1E0910C0164
:1050A000F0910D018081823209F03CC107C0E0918E
:1050B0000C01F0910D018081823261F48C2F0E94ED
:1050C0003F28811104C08C2F0E94E1252FC081E070
:1050D00090E02CC08C2F0E944128811126C0C43141
:1050E000E1F070F4CB3081F0C031D1F40E9489241A
:1050F00081E198E00E94E90682E08093D90115C021
:10510000C93259F0C83361F486E899E00E94E90693
:1051100085E198E00E94E90608C01092D90104C117
:105120008FE098E00E94E906FFC081E08170FEC038
:10513000C43228F5CE3108F0C1C0CB30A1F1D0F493
:10514000C73009F0D3C08EE18093130182E38093CE
:1051500012018AE08093110184E18093100188E0BC
:1051600080930F0188E280930E0185EB96E00E9408
:10517000E906BFC0C33149F1C431C1F0B7C0CB3477
:1051800009F4A9C028F4C93289F0C83361F0AEC06F
:10519000C13509F49EC0C23509F499C0CE3409F076
:1051A000A5C06AE09EC00E948924A3C08091D80156
:1051B000882319F01092D8019CC082EC96E00E94DE
:1051C000E90681E08093D901B1C08CE996E00E94A4
:1051D000E9068AE896E00E94E906809113011F9291
:1051E0008F9387E896E09F938F930E94820785E8CC
:1051F00096E00E94E90683E796E00E94E906809126
:1052000012011F928F9380E796E09F938F930E94E5
:1052100082078EE696E00E94E9068FE596E00E94FE
:10522000E906809111011F928F938CE596E09F9380
:105230008F930E9482078AE596E00E94E90689E43E
:1052400096E00E94E906809110011F928F9386E4F8
:1052500096E09F938F930E94820784E496E00E94D9
:10526000E9068FE296E00E94E90680910F011F9205
:105270008F938CE296E09F938F930E9482078AE23D
:1052800096E00E94E90683E196E00E94E90680919B
:105290000E011F928F9380E196E09F938F930E945F
:1052A00082078EE096E00E94E9068DB79EB7489689
:1052B0000FB6F8949EBF0FBE8DBF1BC0CE51EC2F12
:1052C000F0E0E85CFE4F80818093D80112C061E07D
:1052D00003C061E006C06AE08091D8010E94A0246A
:1052E00008C08091D8010E94432503C083EB96E05B
:1052F00013C08091D801882369F01F928F938DEAA3
:1053000096E09F938F930E9482070F900F900F90CB
:105310000F9004C08AEA96E00E94E90681E006C088
:105320001092D90180E002C080E000CFCF910895B3
:1053300004D06894B1118DC0089570D088F09F5743
:1053400090F0B92F9927B751A0F0D1F0660F771FD1
:10535000881F991F1AF0BA95C9F712C0B13081F0B1
:1053600077D0B1E0089574C0672F782F8827B85F91
:1053700039F0B93FCCF3869577956795B395D9F712
:105380003EF490958095709561957F4F8F4F9F4F1C
:105390000895E89409C097FB3EF490958095709528
:1053A00061957F4F8F4F9F4F9923A9F0F92F96E971
:1053B000BB279395F695879577956795B795F111E6
:1053C000F8CFFAF4BB0F11F460FF1BC06F5F7F4F83
:1053D0008F4F9F4F16C0882311F096E911C0772395
:1053E00021F09EE8872F762F05C0662371F096E89E
:1053F000862F70E060E02AF09A95660F771F881F6D
:10540000DAF7880F9695879597F9089557FD905884
:10541000440F551F59F05F3F71F04795880F97FB78
:10542000991F61F09F3F79F0879508951216130632
:105430001406551FF2CF4695F1DF08C01616170661
:105440001806991FF1CF8695710561050894089596
:10545000E894BB2766277727CB0197F908950AD0F0
:1054600080C071D028F076D018F0952309F062C082
:1054700067C0EFCFCBDFA8F39923D9F35523C9F346
:10548000950F50E0551FAA27EE27FF27BB270024C2
:105490000894679520F4E20FF31FB41F0A1E220F31
:1054A000331F441FAA1F6695A9F7779530F4F30FB1
:1054B000B41F0A1E121E08F46395330F441FAA1F5F
:1054C000221F769599F7879520F4B40F0A1E121EB5
:1054D000631F440FAA1F221F331F8695A9F7862F2B
:1054E000712D602D11249F5750408AF0E1F08823E0
:1054F0004AF0EE0FFF1FBB1F661F771F881F9150DA
:105500005040A9F79E3F510570F014C0A2CF5F3FF5
:10551000ECF3983EDCF3869577956795B795F7950C
:10552000E7959F5FC1F7FE2B880F911D9695879594
:1055300097F9089597F99F6780E870E060E0089513
:105540009FEF80EC089500240A941616170618069B
:105550000906089500240A94121613061406050677
:105560000895092E0394000C11F4882352F0BB0F08
:1055700040F4BF2B11F460FF04C06F5F7F4F8F4F6B
:105580009F4F08950024552704C0080E591F880F07
:10559000991F009729F076956795B8F37105B9F7CB
:1055A000802D952F0895991B79E004C0991F9617B7
:1055B00008F0961B881F7A95C9F78095089597FB88
:1055C000072E16F4009407D077FD09D00E94F92A1F
:1055D00007FC05D03EF4909581959F4F08957095F6
:1055E00061957F4F0895EE0FFF1F0590F491E02D18
:1055F0000994AA1BBB1B51E107C0AA1FBB1FA6171A
:10560000B70710F0A61BB70B881F991F5A95A9F76B
:1056100080959095BC01CD010895F999FECF92BD7A
:1056200081BDF89A992780B50895A8E1B0E042E0DD
:1056300050E00C94352B262FF999FECF92BD81BDF9
:10564000F89A019700B4021639F01FBA20BD0FB6C0
:10565000F894FA9AF99A0FBE08950196272F0E949E
:105660001C2B0C941B2BDC01CB01FC01F999FECF08
:1056700006C0F2BDE1BDF89A319600B40D924150DA
:0A5680005040B8F70895F894FFCFEA
:10568A00FF820C730D500D1C0DE80C01BE01280899
:10569A00140A321E03132333435363730919293936
:1056AA0049596926404D36203B04EE03B803980356
:1056BA0024033D0356036F0301020304050607088A
:0256CA000900D5
:00000001FF
